:020000040000fa
:080000000002040000000000f2
:020000040000fa
:100008009a0200009a0200009a0200009a02000078
:100018009a0200009a0200009a0200009a02000068
:100028009a0200009a0200009a0200009a02000058
:100038009a0200009a0200009a0200009a02000048
:100048009a0200009a0200009a0200009a02000038
:100058009a0200009a0200009a0200009a02000028
:100068009a0200009a0200009a0200009a02000018
:100078009a0200009a0200009a0200009a02000008
:100088009a0200009a0200009a0200009a020000f8
:100098009a0200009a020000f4030000e003000046
:1000a8009a0200009a0200009a0200009a020000d8
:1000b8009a0200009a0200009a0200009a020000c8
:1000c8009a0200009a0200009a0200009a020000b8
:1000d8009a0200009a0200009a0200009a020000a8
:1000e8009a0200009a0200009a0200009a02000098
:1000f8009a0200009a0200009a0200009a02000088
:100108009a0200009a0200009a0200009a02000077
:100118009a0200009a0200009a0200009a02000067
:100128009a0200009a0200009a0200009a02000057
:100138009a0200009a0200009a0200009a02000047
:100148009a0200009a0200009a0200009a02000037
:100158009a0200009a0200009a0200009a02000027
:100168009a0200009a0200009a0200009a02000017
:100178009a0200009a0200009a0200009a02000007
:100188009a0200009a0200009a0200009a020000f7
:100198009a0200009a0200009a0200009a020000e7
:1001a8009a0200009a0200009a0200009a020000d7
:1001b8009a0200009a0200009a0200009a020000c7
:1001c8009a0200009a0200009a0200009a020000b7
:1001d8009a0200009a0200009a0200009a020000a7
:1001e8009a0200009a0200009a0200009a02000097
:0801f8009a0200009a020000c7
:020000040000fa
:100208009a0200009a0200009a0200009a02000076
:100218009a0200009a0200009a0200009a02000066
:100228009a0200009a0200009a0200009a02000056
:100238009a0200009a0200009a0200009a02000046
:100248009a0200009a0200009a0200009a02000036
:100258009a0200009a0200009a0200009a02000026
:100268009a0200009a0200009a0200009a02000016
:100278009a0200009a0200009a0200009a02000006
:100288009a0200009a0200009a0200009a020000f6
:100298009a0200009a020000f4030000e003000044
:1002a8009a0200009a0200009a0200009a020000d6
:1002b8009a0200009a0200009a0200009a020000c6
:1002c8009a0200009a0200009a0200009a020000b6
:1002d8009a0200009a0200009a0200009a020000a6
:1002e8009a0200009a0200009a0200009a02000096
:1002f8009a0200009a0200009a0200009a02000086
:100308009a0200009a0200009a0200009a02000075
:100318009a0200009a0200009a0200009a02000065
:100328009a0200009a0200009a0200009a02000055
:100338009a0200009a0200009a0200009a02000045
:100348009a0200009a0200009a0200009a02000035
:100358009a0200009a0200009a0200009a02000025
:100368009a0200009a0200009a0200009a02000015
:100378009a0200009a0200009a0200009a02000005
:100388009a0200009a0200009a0200009a020000f5
:100398009a0200009a0200009a0200009a020000e5
:1003a8009a0200009a0200009a0200009a020000d5
:1003b8009a0200009a0200009a0200009a020000c5
:1003c8009a0200009a0200009a0200009a020000b5
:1003d8009a0200009a0200009a0200009a020000a5
:1003e8009a0200009a0200009a0200009a02000095
:0803f8009a0200009a020000c5
:020000040000fa
:100400000f8020000eff27000e0188000000000072
:10041000000020000000e000020032000001200087
:10042000200288000c000700e041200001002000ad
:1004300011000700000020000000e0000200320070
:1004400000000200000000007e0302000000000027
:100450000040da000000fe004440a900a001200096
:100460000000e0000300320000002000a00188002e
:100470004440a80000000600910188008000780038
:100480000000eb0015003700e280400032a0b4000d
:100490009101ba00e280400032a0b4009102ba009b
:1004a000e280400032a0b4000002eb00472bde00e7
:1004b000f507b200602ce10004003a000059eb009f
:1004c0008301e900fdff3e00040037006128e100e0
:1004d000010032000082eb00040007001101ba00a5
:1004e0000200e000e8ff3a00000006003159ba00bf
:1004f0008301e9000c0032002159ba008301e900b0
:10050000080032000400e00003003a00e2804000ee
:1005100032a0b400f5ff370011d9ba008301e90019
:10052000faff3a008100e800e180400032a0b40008
:10053000000006000040da000000fe000600fa009d
:1005400010079800414798000000eb00000f78006a
:10055000060037001e0078009e00900000804000da
:10056000104078008a0007001e0fe8004e409000ff
:100570000080fb009e0f5000f6ff3c000080fa0058
:040580000000060071
:020000040000fa
:100584004d43000055310000325f00003820000068
:1005940055530000415200005420000069730000cc
:1005a4002052000045410000445900002121000070
:0405b4000a00000039
:020000040000fa
:1005b8000400fa0045e7a9004567a900203a800031
:1005c80000c0a10000d0a10000e0a100203a8800ee
:1005d800213a800000fe2f00008060002001b30057
:1005e800203a8800e0092000303a8800203a80004c
:1005f8000060a1000070a100203a8800100280006d
:100608000050a1000060a1000070a1001002880045
:10061800803e2000000f78000a003700803e20004e
:1006280010079800030037001e0090000000e90042
:10063800100798001e0090000000e000faff3c0040
:100648001e0fe9001e0078000000e000f3ff3c00e8
:100658000080fa00000006000000fa000080eb00ad
:1006680010168800c022ef000080eb0010168800ea
:100678000080eb00401688000080eb0030168800f0
:100688000080eb00401688000080eb0070168800a0
:10069800cc22ef000080eb00701688000080eb0091
:1006a800a0168800d222ef000080eb00a016880078
:1006b8000080eb00d0168800d822ef000080eb0005
:1006c800d01688000080eb0000178800de22ef00bb
:1006d8000080eb00001788000080eb0030178800ce
:1006e800e422ef000080eb00301788000080fa0059
:1006f800000006000000fa00adff070040a7a900af
:10070800d5ff07001008200004000700202c28004f
:10071800a1c1b30087ff0700ffff37000200fa00fe
:10072800000f78003022ef003162a80080118000ad
:100738000010a1000020a000801188003002a9004c
:1007480033a2a90033e2a900901180000060a10043
:100758000070a100901188009e007800c1118800e7
:10076800de82a800dea2a90087e0a90097e0a90020
:1007780087c0a90097c0a80031e2a8003342a800aa
:100788000080fa00000006000200fa00004f78001e
:10079800000000009111800000202000008060000f
:1007a8000000e000fbff3a001e80fb00a01188005b
:1007b8000080fa00000006003400f800881f780066
:1007c80008002000a80188004f0478000000fa0003
:1007d80087e0a9000080fa003400f9000040060014
:1007e8003600f800809fbe00829fbe00849fbe0036
:1007f800869fbe003400f80000002000a001880099
:100808000000fa00b011800000407800deff070009
:1008180087c0a9000080fa003400f9004f03be0029
:100828004f02be004f01be004f00be003600f90067
:040838000040060076
:020000040000fa
:04083c0000000000b8
:020000040000fa
:0200000401f009
:04000000ffff0000fe
:020000040000fa
:0200000401f009
:04000400ff000000f9
:020000040000fa
:0200000401f009
:04000800ffff0000f6
:020000040000fa
:0200000401f009
:04000c00fbff0000f6
:020000040000fa
:0200000401f009
:04001000beff00002f
:020000040000fa
:0200000401f009
:0400140077ff000072
:020000040000fa
:0200000401f009
:04001800ffff0000e6
:020000040000fa
:0200000401f009
:04001c00deff000003
:00000001FF
