:020000040000fa
:080000000002040000000000f2
:020000040000fa
:100008009a0200009a0200009a0200009a02000078
:100018009a0200009a0200009a0200009a02000068
:100028009a0200009a0200009a020000920d000055
:100038009a0200009a0200009a0200009a02000048
:100048009a0200009a0200009a0200009a02000038
:100058009a0200009a0200009a0200009a02000028
:100068009a0200009a0200009a0200009a02000018
:100078009a0200009a0200009a0200009a02000008
:100088009a0200009a0200009a0200009a020000f8
:100098009a0200009a0200009a0200009a020000e8
:1000a8009a0200009a0200009a0200009a020000d8
:1000b8009a0200009a0200009a0200009a020000c8
:1000c8009a0200009a0200009a0200009a020000b8
:1000d8009a0200009a0200009a0200009a020000a8
:1000e8009a0200009a0200009a0200009a02000098
:1000f8009a0200009a0200009a0200009a02000088
:100108009a0200009a0200009a0200009a02000077
:100118009a0200009a0200009a0200009a02000067
:100128009a0200009a0200009a0200009a02000057
:100138009a0200009a0200009a0200009a02000047
:100148009a0200009a0200009a0200009a02000037
:100158009a0200009a0200009a0200009a02000027
:100168009a0200009a0200009a0200009a02000017
:100178009a0200009a0200009a0200009a02000007
:100188009a0200009a0200009a0200009a020000f7
:100198009a0200009a0200009a0200009a020000e7
:1001a8009a0200009a0200009a0200009a020000d7
:1001b8009a0200009a0200009a0200009a020000c7
:1001c8009a0200009a0200009a0200009a020000b7
:1001d8009a0200009a0200009a0200009a020000a7
:1001e8009a0200009a0200009a0200009a02000097
:0801f8009a0200009a020000c7
:020000040000fa
:100208009a0200009a0200009a0200009a02000076
:100218009a0200009a0200009a0200009a02000066
:100228009a0200009a0200009a020000920d000053
:100238009a0200009a0200009a0200009a02000046
:100248009a0200009a0200009a0200009a02000036
:100258009a0200009a0200009a0200009a02000026
:100268009a0200009a0200009a0200009a02000016
:100278009a0200009a0200009a0200009a02000006
:100288009a0200009a0200009a0200009a020000f6
:100298009a0200009a0200009a0200009a020000e6
:1002a8009a0200009a0200009a0200009a020000d6
:1002b8009a0200009a0200009a0200009a020000c6
:1002c8009a0200009a0200009a0200009a020000b6
:1002d8009a0200009a0200009a0200009a020000a6
:1002e8009a0200009a0200009a0200009a02000096
:1002f8009a0200009a0200009a0200009a02000086
:100308009a0200009a0200009a0200009a02000075
:100318009a0200009a0200009a0200009a02000065
:100328009a0200009a0200009a0200009a02000055
:100338009a0200009a0200009a0200009a02000045
:100348009a0200009a0200009a0200009a02000035
:100358009a0200009a0200009a0200009a02000025
:100368009a0200009a0200009a0200009a02000015
:100378009a0200009a0200009a0200009a02000005
:100388009a0200009a0200009a0200009a020000f5
:100398009a0200009a0200009a0200009a020000e5
:1003a8009a0200009a0200009a0200009a020000d5
:1003b8009a0200009a0200009a0200009a020000c5
:1003c8009a0200009a0200009a0200009a020000b5
:1003d8009a0200009a0200009a0200009a020000a5
:1003e8009a0200009a0200009a0200009a02000095
:0803f8009a0200009a020000c5
:020000040000fa
:100400002f8620000eff27000e018800000000004c
:10041000000020000000e000020032000001200087
:10042000200288000c00070000db200001002000f3
:1004300011000700000020000000e0000200320070
:100440000000020000000000c80a020000000000d6
:100450000040da000000fe004440a900a00b20008c
:100460000000e0000300320000002000a00188002e
:100470004440a80000000600910188008000780038
:100480000000eb0015003700e280400032a0b4000d
:100490009101ba00e280400032a0b4009102ba009b
:1004a000e280400032a0b4000002eb00472bde00e7
:1004b000f507b200602ce10004003a000059eb009f
:1004c0008301e900fdff3e00040037006128e100e0
:1004d000010032000082eb00040007001101ba00a5
:1004e0000200e000e8ff3a00000006003159ba00bf
:1004f0008301e9000c0032002159ba008301e900b0
:10050000080032000400e00003003a00e2804000ee
:1005100032a0b400f5ff370011d9ba008301e90019
:10052000faff3a008100e800e180400032a0b40008
:0c053000000006000040da000000fe00a1
:020000040000fa
:10053c0020200000202000002020000020200000af
:10054c00202000002020000020200000202000009f
:10055c002020000020200000004e0000756d0000df
:10056c0062650000722000006d750000737400005d
:10057c00206200006574000077650000656e000065
:10058c0020000000202d0000333200003736000020
:10059c0038200000746f0000202b00003332000064
:1005ac0037360000372000002020000000500000eb
:1005bc00726500007373000020610000206e000063
:1005cc00756d000062650000720000005468000048
:1005dc006973000020690000732000006e6f00003a
:1005ec0074200000612000006e7500006d62000038
:1005fc006572000021200000000000002020000097
:10060c0020200000202000002020000020200000de
:10061c0020200000202000002020000020200000ce
:10062c002020000000200000202000003d200000c1
:10063c004d43000055200000436f00007572000010
:10064c0073650000203d0000202000002000000009
:10065c00202000002020000020200000205400005a
:10066c00454100004d2000003132000020200000e8
:10067c00202000002020000000200000202000008e
:10068c002020000032300000313500002f310000f6
:10069c00302f00003032000020200000202000000d
:0406ac00200000002a
:020000040000fa
:1006b0000200fa000000eb00000f78000100370094
:1006c0001e0fe8001e007800fd0f5000fcff3400f4
:1006d000e100070022e8b7000000eb00000f7800ff
:1006e000010037001e0fe8001e007800fd0f5000cb
:1006f000fcff340022c8bf000080fb004700de0082
:10070000004078000080fb00610060000080fa007b
:10071000000006000000fa00c0122000920007004e
:10072000d742a9001602070000c2b300600107000b
:10073000a00020008c00070080c2b3009a010700cf
:10074000100020008800070080c0b3009601070059
:10075000a00020008400070010c0b3009201070031
:10076000c003200080000700c0c0b3008e01070056
:10077000a00020007c00070060c0b3008a010700d1
:10078000a00020007800070000c8b3008601070021
:10079000a000200074000700a00f200072000700d6
:1007a0000080fa00000006000400fa0020479800cc
:1007b000314798002e4090000000fb00e10f5000f0
:1007c0000d003200e10f500003003c000000e0008b
:1007d0000600320011003700e20f5000090032001d
:1007e000e30f50000a0032000c00370000c8b300cd
:1007f000004f78000c00370000ccb300004f7800a9
:100800000900370040c9b300004f780006003700e8
:1008100040cdb300004f78000300370000c8b3009c
:10082000004f7800000000003e4090001e4f400046
:100830001e4078005c0107000080fa0000000600fe
:100840000400fa0020479800314798002e4090009d
:100850000000fb00e10f50000d003200e10f5000de
:1008600003003c000000e0000600320011003700e9
:10087000e20f500009003200e30f50000a0032007e
:100880000c00370000ccb300004f78000c0037009c
:1008900000c8b300004f78000900370040c9b3001a
:1008a000004f78000600370040cdb300004f7800bd
:1008b000030037000040eb00004f7800000000000c
:1008c0003e4090001e4f40001e4078003601070059
:1008d0000080fa00000006000200fa00004f7800d5
:1008e0001e4078007c0007000080fa00000006002f
:1008f0000200fa00000f7800040037001e007800a4
:10090000104078001e0fe800730007001e007800fa
:10091000104078000004e000f8ff3a000080fa0080
:10092000000006000200fa00000f780008003700ff
:10093000000000005eff07000000e000fdff3a003d
:100940001e007800104078001e0fe800e2ff07004c
:100950001e007800104078000004e000f4ff3a0028
:100960000080fa00000006000400fa00100798005a
:100970000000eb00000f78000200370007000700be
:100980001e0fe8001e0090009e007800808f50002f
:10099000faff35000080fa00000006000200fa00ad
:1009a0000000eb00000f7800010037001e0fe80088
:1009b000f06320009e007800808f5000fbff340021
:1009c0000080fa00000006000200fa009116800084
:1009d000f08720000100700090168800e822a8002f
:1009e000e802a80066010700d742a80064010700da
:1009f000a0168000000f7800d742a9009116800051
:100a000000782f0000806000901688009e0078001b
:100a100021418800008020001e0060000000e000ee
:100a20000500320021418000000820000100700014
:100a3000204188000400370021418000f007200099
:100a40000080600020418800204180000040780044
:100a50000080fa00000006000400fa0091168000f1
:100a600000002f000100700090168800e822a90005
:100a7000e802a80042010700d742a8004001070091
:100a8000a1168000010f7800d742a900e822a90032
:100a9000e802a8003a010700d742a8003801070081
:100aa000d742a90091168000f0ff2000008060006e
:100ab000901688001e0078004800de008040780014
:100ac00000c8b30000c06000204798002e4090008e
:100ad0000080fa00000006000400fa002047980099
:100ae000ae409000014f780000cfb3001e40600080
:100af000104798009e409000028220000149780033
:100b0000004180004400de00614060000080fb0086
:100b1000610060004c00dd00b2168000f1ff2e0085
:100b20008100610001007000b01688000041800063
:100b30004500de00614060000080fb006100600055
:100b40004d00dd00b2168000f1ff2d008100610034
:100b500001007000b0168800004180004600de00f1
:100b6000614060000080fb00610060004e00dd001d
:100b7000b2168000f1ff2b008100610001007000bf
:100b8000b0168800004180004700de006140600030
:100b90000080fb004f00dd00b2168000f1ff27004f
:100ba0008100610001007000b0168800e822a800f2
:100bb000e802a900f2000700d742a800f0000700f1
:100bc000d742a900ee0007001e80fb004400dd00b4
:100bd000104798009e409000028220000149780052
:100be000004180004400de00614060000080fb00a6
:100bf000610060004c00dd00b2168000f1ff2e00a5
:100c00008100610001007000b01688000041800082
:100c10004500de00614060000080fb006100600074
:100c20004d00dd00b2168000f1ff2d008100610053
:100c300001007000b0168800004180004600de0010
:100c4000614060000080fb00610060004e00dd003c
:100c5000b2168000f1ff2b008100610001007000de
:100c6000b0168800004180004700de00614060004f
:100c70000080fb004f00dd00b2168000f1ff27006e
:100c80008100610001007000b0168800e822a80011
:100c9000e802a900ba000700d742a800b800070080
:100ca000d742a900b60007000080fa000000060045
:100cb0000400fa0020479800ae409000014f7800f1
:100cc00000cfb3001e406000104798009e40900087
:100cd0000282200001497800004180004400de00cb
:100ce000614060000080fb00610060004c00dd009e
:100cf000b2168000f1ff2e0081006100010070003b
:100d0000b0168800004180004500de0061406000b0
:100d10000080fb00610060004d00dd00b216800025
:100d2000f1ff2d008100610001007000b016880005
:100d3000004180004600de00614060000080fb0052
:100d4000610060004e00dd00b2168000f1ff2b0054
:100d50008100610001007000b01688000041800031
:100d60004700de00614060000080fb004f00dd00b6
:100d7000b2168000f1ff27008100610001007000c1
:100d8000b0168800e822a900e802a9007c0007004c
:100d9000d742a8007a000700d742a90078000700d0
:100da0000080fa00000006000400fa0020479800c6
:100db000ae409000014f780000cfb3001e406000ad
:100dc000104798009e409000028220000149780060
:100dd000004180004400de00614060000080fb00b4
:100de000610060004c00dd00b2168000f1ff2e00b3
:100df0008100610001007000b01688000041800091
:100e00004500de00614060000080fb006100600082
:100e10004d00dd00b2168000f1ff2d008100610061
:100e200001007000b0168800004180004600de001e
:100e3000614060000080fb00610060004e00dd004a
:100e4000b2168000f1ff2b008100610001007000ec
:100e5000b0168800004180004700de00614060005d
:100e60000080fb004f00dd00b2168000f1ff27007c
:100e70008100610001007000b0168800e822a9001e
:100e8000e802a9003e000700d742a8003c00070086
:100e9000d742a9003a0007001e80fb004400dd0095
:100ea000104798009e40900002822000014978007f
:100eb000004180004400de00614060000080fb00d3
:100ec000610060004c00dd00b2168000f1ff2e00d2
:100ed0008100610001007000b016880000418000b0
:100ee0004500de00614060000080fb0061006000a2
:100ef0004d00dd00b2168000f1ff2d008100610081
:100f000001007000b0168800004180004600de003d
:100f1000614060000080fb00610060004e00dd0069
:100f2000b2168000f1ff2b0081006100010070000b
:100f3000b0168800004180004700de00614060007c
:100f40000080fb004f00dd00b2168000f1ff27009b
:100f50008100610001007000b0168800e822a9003d
:100f6000e802a90006000700d742a8000400070015
:100f7000d742a900020007000080fa000000060026
:100f80000200fa000000eb00000f780001003700bb
:100f90001e0fe800700c20009e007800808f50002b
:100fa000fbff34000080fa00000006004000fa0059
:100fb0009031280014000900305f78005e01b10014
:100fc0005001b100e0322800f5004700140009008c
:100fd000b05878005001b10030342800a102200040
:100fe0008100470014000900b05878005001b1009a
:100ff0008040eb000040eb0011fe07000e0078007f
:101000003bfe07008040eb0010c0b3000cfe070061
:101010007500470036fe07008040eb0020c0b3009b
:1010200007fe07004030280031fe07008040eb003b
:1010300030c0b30002fe0700a00220000e004000f6
:101040002bfe07000080fa00000006000000fa00f6
:101050008040eb000040eb00f9fd07004030280025
:1010600023fe07008040eb0010c0b300f4fd070032
:10107000403028001efe07008040eb0020c0b30077
:10108000effd07004030280019fe07008040eb000c
:1010900030c0b300eafd07004030280014fe07000e
:1010a0000080fa00000006000800fa0020079800ff
:1010b000310798002e019000be019000028fbe0003
:1010c000040037000081eb008081eb001e0f41001f
:1010d0005e9749001e00be00e00f5000e08f5800f0
:1010e000f8ff3a000080fa00000006000800fa004d
:1010f00020079800310798002e019000be01900053
:10110000028fbe0007003700402e200001002000a3
:10111000e5ff07000081eb008081eb001e0f41001e
:101120005e9749001e00be00e00f5000e08f58009f
:10113000f5ff3a000080fa00000006000400fa0003
:1011400045e7a9004567a900203a800000c0a1003a
:1011500000d0a10000e0a100203a8800213a8000e0
:1011600000fe2f00008060002001b300203a8800bc
:10117000e0092000303a8800203a80000060a10099
:101180000070a100203a8800100280000050a100e9
:101190000060a1000070a10010028800803e2000c5
:1011a000000f78000a003700803e200010079800ea
:1011b000030037001e0090000000e90010079800af
:1011c0001e0090000000e000faff3c001e0fe90046
:1011d0001e0078000000e000f3ff3c000080fa00f1
:1011e000000006000000fa000080eb0010168800e6
:1011f000c022ef000080eb00101688000080eb009a
:1012000040168800c622ef000080eb0040168800e0
:101210000080eb0070168800cc22ef000080eb000d
:10122000701688000080eb00a0168800d222ef0024
:101230000080eb00a01688000080eb00d01688002c
:10124000d822ef000080eb00d01688000080eb0071
:1012500000178800de22ef000080eb0000178800f6
:101260000080eb0030178800e422ef000080eb00e4
:10127000301788000080fa00000006000200fa0023
:10128000000f78001e007800cf80de00f200200002
:1012900003002000820f5000838f580031003e0071
:1012a000006001000f003700100037001100370008
:1012b0001200370013003700140037001500370004
:1012c00016003700170037001800370019003700e4
:1012d0001a0037001b0037001c0037001d003700c4
:1012e0001e00370000c3b3001f00370010c3b30057
:1012f0001d00370020c3b3001b00370030c3b3000c
:101300001900370040c3b3001700370050c3b300c3
:101310001500370060c3b3001300370070c3b3007b
:101320001100370080c3b3000f00370090c3b30033
:101330000d00370010c4b3000b00370020c4b30009
:101340000900370030c4b3000700370040c4b300c1
:101350000500370050c4b3000300370060c4b30079
:1013600001003700000037000080fa00000006008e
:101370000200fa00000f78001e00780010007800cc
:10138000e60f5000150034001e80e80010007800c1
:10139000e50f5000110034009e007800648040008a
:1013a00010007800e60f50000c0034009e0078001a
:1013b0006680400010007800e10f50000700340004
:1013c0009e0078006880400010007800e30f500015
:1013d0000200340020002000010037000000eb0074
:1013e0000080fa00000006000400fa0010079800d0
:1013f0000000eb00000f78001e0090001001780044
:101400001e0090006400400090007800400620001c
:101410000088b900800178001e0090000080e8007c
:10142000100078006a00b9000000780000804100d8
:10143000000141001e00900068004000900078000c
:10144000007122000088b900800178001e00900021
:101450006600400090007800803e20000088b900bf
:101460000000780000804100000f41001e00900045
:1014700010007800e10f500001003a00d762a90087
:101480001e0090006a004000100078000000e0009c
:10149000030032001e0fea001e0078000100370032
:1014a0001e0078000080fa00000006000c00fa0020
:1014b00020079800310798004207980053079800ca
:1014c0002e019000be019000028fbe004e009000e1
:1014d000804078005e00900000407800d8fc070053
:1014e0000080fa00000006000200fa00000f7800f9
:1014f0001e007800e10f500017003a008040eb001a
:101500000040eb00cefc0700e0292800f8fc0700b3
:101510008040eb0010c0b300c9fc0700e0292800a0
:10152000f3fc07008040eb000040eb00c4fc070028
:10153000302b2800eefc07008040eb0010c0b30009
:10154000bffc0700802c2800e9fc07000071220086
:1015500001002000e5fe07001e007800e20f5000a9
:1015600009003a00b9fe07008040eb000040eb00a4
:10157000b3fc0700e0292800ddfc07000071220011
:1015800001002000d9fe07000080fa0000000600dc
:101590002600fa00881f78000040eb0010479800f2
:1015a00010c0b300004f780010c0b300204798006f
:1015b00010c0b3003047980010c0b30040479800f7
:1015c0000040eb005047980040a7a900dbfe070051
:1015d00000000000103a8000680060000000e00099
:1015e000fcff3a0000000000113a800000002700d4
:1015f0008080600000002300808f5000faff3a00d6
:1016000000000000113a800000022000008060000d
:101610000000e000fbff3200f2fe07003dfc070087
:10162000d762a8008700070060fe0700803821000d
:10163000cdfc070085fe07008040eb000040eb007a
:101640007ffc0700e0292800a9fc07008040eb0090
:101650000040eb007afc0700d02d2800a4fc070016
:101660008040eb000040eb0075fc07007100370084
:1016700013c8bf000004fb000c010700800f5400da
:1016800006003a0013c8bf00e14f400003003200db
:1016900006010700e10f4000fdff3a0003010700cb
:1016a0000040780013e8b7001e4078000004e00016
:1016b0001300320013c8bf00e94f500010003c0077
:1016c00013c8bf00e14f40000d0032008040eb0026
:1016d0000040eb005afc0700e029280084fc0700ca
:1016e00030c1b3005047980031c1b3000040eb0057
:1016f00053fc07000040eb00004f78001d0037004e
:101700001e4078000004e0001a00320013c8bf0039
:10171000ea4f5000170034008040eb000040eb001f
:1017200047fc0700e029280071fc07008040eb001f
:101730000040eb0042fc0700c02e28006cfc0700b4
:10174000803821000100200068fe07008040eb0087
:101750000040eb003afc0700e029280064fc070089
:101760008040eb000040eb0035fc0700d02d280046
:101770005ffc070013c8bf00e94f50002d003c007c
:1017800013c8bf000004e0002a00350010c8bf00e5
:101790000004e00009003a0013c8bf000000fb008d
:1017a000cf80de00004088001140880010c8bf00d4
:1017b0000040e80010e8b700190037000040800042
:1017c000114080006a09b900020178006002b90086
:1017d0008401780003014100a30020000300b80049
:1017e000010141008200780000408800114088001b
:1017f00013c8bf000001fb00cf91de000040800055
:1018000011408000020040008380480000408800b2
:101810001140880010c8bf000040e80010e8b70081
:1018200000408000114080001300200032012000a1
:101830001eff07001e4090000004e0008cff3200f5
:101840007dff37000000fa000080eb0010168800d2
:101850000080eb00001688000080eb002016880056
:10186000e622ef00e422ef000080eb004017880042
:101870000000eb000080fa00000006000200fa0001
:101880000000eb00000f7800e982a90010002000a2
:1018900035fc070010168000610060000000e000c9
:1018a00001003a001e00a0001016800062006000d7
:1018b0000000e00001003a001e10a0001016800099
:1018c000640060000000e00001003a001e20a0005b
:1018d00010168000680060000000e00001003a007f
:1018e0001e30a000e982a800e9a2a9001000200093
:1018f0001dfc070010168000610060000000e00081
:1019000001003a001e40a000101680006200600036
:101910000000e00002003a00000220001e0f7000ec
:1019200010168000640060000000e00002003a0031
:10193000000420001e0f7000101680006800600078
:101940000000e00002003a00000820001e0f7000b6
:10195000e9a2a800e9c2a9001000200002fc0700cb
:1019600010168000610060000000e00002003a00f4
:10197000001020001e0f7000101680006200600032
:101980000000e00002003a00002020001e0f70005e
:1019900010168000640060000000e00002003a00c1
:1019a000004020001e0f70001016800068006000cc
:1019b0000000e00002003a00008020001e0f7000ce
:1019c000e9c2a800e9e2a90010002000e6fb070038
:1019d00010168000610060000000e00002003a0084
:1019e000000021001e0f70001016800062006000d1
:1019f0000000e00002003a00000022001e0f70000c
:101a000010168000640060000000e00002003a0050
:101a1000000024001e0f7000101680006800600097
:101a20000000e00002003a00000028001e0f7000d5
:101a3000e9e2a8001e0078000080fa00000006001d
:101a40000400fa00204798008cff0700000f780080
:101a50002e4090000000fb00110020000008dd0077
:101a60001e0060000000e0000d003200a00f20000a
:101a7000bdfb070081ff0700000f78002e4090009b
:101a80000000fb00110020000008dd001e006000c7
:101a90000000e000020032001000200001003700ca
:101aa0000000eb000080fa00000006000200fa00cf
:101ab0000000eb00000f7800080037001e007800df
:101ac00000407800deff07000000e0000200320066
:101ad0001e007800050037001e0fe8001e00780089
:101ae000ef0f5000f5ff34000080eb000080fa009b
:101af000000006000000fa0000352c0010088800e5
:101b00000421ef00200880000040a0000050a10048
:101b10002008880005e1a8009460a8000080fa0071
:101b200000000600809fbe003400f8000000200086
:101b3000a00188000000fa008460a90080812000d4
:101b400030009000ea0040008081200031009800c1
:101b50000080fa003400f9004f00be00004006008b
:020000040000fa
:101b60002008000006000000000000002608000019
:101b70003c0000000000000000080000140000000d
:101b800000000000140800000c000000000000002d
:041b90000000000051
:020000040000fa
:0200000401f009
:0400080007000000ed
:020000040000fa
:0200000401f009
:04000c00a30000004d
:020000040000fa
:0200000401f009
:04001000e600000006
:020000040000fa
:0200000401f009
:040014007700000071
:020000040000fa
:0200000401f009
:04001800e7000000fd
:020000040000fa
:0200000401f009
:04001c00c20000001e
:00000001FF
