:020000040000fa
:080000000002040000000000f2
:020000040000fa
:100008009a0200009a0200009a0200009a02000078
:100018009a0200009a0200009a0200009a02000068
:100028009a0200009a0200009a0200009014000050
:100038009a0200009a0200009a0200009a02000048
:100048009a0200009a0200009a0200009a02000038
:100058009a0200009a0200009a0200009a02000028
:100068009a0200009a0200009a0200009a02000018
:100078009a0200009a0200009a0200009a02000008
:100088009a0200009a0200009a0200009a020000f8
:100098009a0200009a0200009a0200009a020000e8
:1000a8009a0200009a0200009a0200009a020000d8
:1000b8009a0200009a0200009a0200009a020000c8
:1000c8009a0200009a0200009a0200009a020000b8
:1000d8009a0200009a0200009a0200009a020000a8
:1000e8009a0200009a0200009a0200009a02000098
:1000f8009a0200009a0200009a0200009a02000088
:100108009a0200009a0200009a0200009a02000077
:100118009a0200009a0200009a0200009a02000067
:100128009a0200009a0200009a0200009a02000057
:100138009a0200009a0200009a0200009a02000047
:100148009a0200009a0200009a0200009a02000037
:100158009a0200009a0200009a0200009a02000027
:100168009a0200009a0200009a0200009a02000017
:100178009a0200009a0200009a0200009a02000007
:100188009a0200009a0200009a0200009a020000f7
:100198009a0200009a0200009a0200009a020000e7
:1001a8009a0200009a0200009a0200009a020000d7
:1001b8009a0200009a0200009a0200009a020000c7
:1001c8009a0200009a0200009a0200009a020000b7
:1001d8009a0200009a0200009a0200009a020000a7
:1001e8009a0200009a0200009a0200009a02000097
:0801f8009a0200009a020000c7
:020000040000fa
:100208009a0200009a0200009a0200009a02000076
:100218009a0200009a0200009a0200009a02000066
:100228009a0200009a0200009a020000901400004e
:100238009a0200009a0200009a0200009a02000046
:100248009a0200009a0200009a0200009a02000036
:100258009a0200009a0200009a0200009a02000026
:100268009a0200009a0200009a0200009a02000016
:100278009a0200009a0200009a0200009a02000006
:100288009a0200009a0200009a0200009a020000f6
:100298009a0200009a0200009a0200009a020000e6
:1002a8009a0200009a0200009a0200009a020000d6
:1002b8009a0200009a0200009a0200009a020000c6
:1002c8009a0200009a0200009a0200009a020000b6
:1002d8009a0200009a0200009a0200009a020000a6
:1002e8009a0200009a0200009a0200009a02000096
:1002f8009a0200009a0200009a0200009a02000086
:100308009a0200009a0200009a0200009a02000075
:100318009a0200009a0200009a0200009a02000065
:100328009a0200009a0200009a0200009a02000055
:100338009a0200009a0200009a0200009a02000045
:100348009a0200009a0200009a0200009a02000035
:100358009a0200009a0200009a0200009a02000025
:100368009a0200009a0200009a0200009a02000015
:100378009a0200009a0200009a0200009a02000005
:100388009a0200009a0200009a0200009a020000f5
:100398009a0200009a0200009a0200009a020000e5
:1003a8009a0200009a0200009a0200009a020000d5
:1003b8009a0200009a0200009a0200009a020000c5
:1003c8009a0200009a0200009a0200009a020000b5
:1003d8009a0200009a0200009a0200009a020000a5
:1003e8009a0200009a0200009a0200009a02000095
:0803f8009a0200009a020000c5
:020000040000fa
:100400002f8620000eff27000e018800000000004c
:10041000000020000000e000020032000001200087
:10042000200288000c000700e04a210001002000a3
:1004300011000700000020000000e0000200320070
:100440000000020000000000ca08020000000000d6
:100450000040da000000fe004440a900200e200009
:100460000000e0000300320000002000a00188002e
:100470004440a80000000600910188008000780038
:100480000000eb0015003700e280400032a0b4000d
:100490009101ba00e280400032a0b4009102ba009b
:1004a000e280400032a0b4000002eb00472bde00e7
:1004b000f507b200602ce10004003a000059eb009f
:1004c0008301e900fdff3e00040037006128e100e0
:1004d000010032000082eb00040007001101ba00a5
:1004e0000200e000e8ff3a00000006003159ba00bf
:1004f0008301e9000c0032002159ba008301e900b0
:10050000080032000400e00003003a00e2804000ee
:1005100032a0b400f5ff370011d9ba008301e90019
:10052000faff3a008100e800e180400032a0b40008
:10053000000006000040da000000fe00839f680013
:100540000100e00002003d0060001000e0801800a3
:100550000300e00002003d0060011100e08119008d
:10056000140007004f00e00002003b006000100094
:10057000e080180000000600811f78000100e00004
:1005800002003d0060001000e08018000300e00061
:1005900002003d0060011100e08119001500070014
:1005a0004f00e00002003b0060001000e0801800f7
:1005b000000006006022b800060220000000d00003
:1005c0008180d2000482d2008582d2000000a00087
:1005d0000202520083825a000300310002024200ec
:1005e00083824a000000a1000603e900f3ff3a00fd
:1005f00000000600efff07000400be000000060038
:020000040000fa
:100600004e7500006d62000065720000206d0000f4
:1006100075730000742000006265000074770000ac
:10062000656500006e200000002000002d320000f3
:100630003134000037340000383300003634000015
:10064000382000007e200000202000002020000034
:1006500020000000202000002020000020200000ba
:100660002b320000313400003734000038330000f2
:100670003634000037200000202000000020000059
:10068000202000002020000020200000202000006a
:10069000202000002020000020200000202000005a
:1006a0002020000020000000507200006573000050
:1006b00073200000612000006e7500006d62000074
:1006c00065720000002000004e6f000074200000e2
:1006d000612000006e7500006d6200006572000010
:1006e0002121000020200000202000002000000028
:1006f000526500002d6500006e74000065720000f8
:10070000207900006f750000722000007661000003
:100710006c750000652e0000000000002020000025
:1007200020200000202000002020000020200000c9
:1007300020200000202000002020000020200000b9
:100740002020000000200000202000003d200000ac
:100750004d43000055200000436f000075720000fb
:1007600073650000203d00002020000020000000f4
:100770002020000020200000202000002054000045
:10078000454100004d2000003132000020200000d3
:100790002020000020200000002000002020000079
:1007a0002020000032300000313500002f310000e1
:1007b000302f0000303200002020000020200000f8
:0407c0002000000015
:020000040000fa
:1007c4000800fa0020079800310798002e019000d5
:1007d400be019000028fbe00040037000081eb00d0
:1007e4008081eb001e0f41005e9749001e00be0091
:1007f400e00f5000e08f5800f8ff3a000080fa0044
:10080400000006000800fa0020079800310798004d
:100814002e019000be019000028fbe000700370039
:10082400402e200001002000e5ff07000081eb00be
:100834008081eb001e0f41005e9749001e00be0040
:10084400e00f5000e08f5800f5ff3a000080fa00f6
:10085400000006000400fa0045e7a9004567a90066
:10086400203a800000c0a10000d0a10000e0a10057
:10087400203a8800213a800000fe2f0000806000aa
:100884002001b300203a8800e0092000303a8800b3
:10089400203a80000060a1000070a100203a880086
:1008a400100280000050a1000060a1000070a100af
:1008b40010028800803e2000000f78000a003700f4
:1008c400803e200010079800030037001e009000af
:1008d4000000e900100798001e0090000000e000ee
:1008e400faff3c001e0fe9001e0078000000e00043
:1008f400f3ff3c000080fa00000006000000fa004c
:100904000080eb0010168800c022ef000080eb008e
:10091400101688000080eb0040168800c622ef0005
:100924000080eb00401688000080eb007016880001
:10093400cc22ef000080eb00701688000080eb00f2
:10094400a0168800d222ef000080eb00a0168800d9
:100954000080eb00d0168800d822ef000080eb0066
:10096400d01688000080eb0000178800de22ef001c
:100974000080eb00001788000080eb00301788002f
:10098400e422ef000080eb00301788000080fa00ba
:10099400000006000200fa00000f78001e00780034
:1009a400cf80de00f200200003002000820f500000
:1009b400838f580031003e00006001000f003700b3
:1009c4001000370011003700120037001300370001
:1009d40014003700150037001600370017003700e1
:1009e40018003700190037001a0037001b003700c1
:1009f4001c0037001d0037001e00370000c3b30081
:100a04001f00370010c3b3001d00370020c3b3001c
:100a14001b00370030c3b3001900370040c3b300d4
:100a24001700370050c3b3001500370060c3b3008c
:100a34001300370070c3b3001100370080c3b30044
:100a44000f00370090c3b3000d00370010c4b3008b
:100a54000b00370020c4b3000900370030c4b300d2
:100a64000700370040c4b3000500370050c4b3008a
:100a74000300370060c4b3000100370000003700f2
:100a84000080fa00000006000200fa00000f78005f
:100a94001e00780010007800e60f500015003400a6
:100aa4001e80e80010007800e50f500011003400ab
:100ab4009e0078006480400010007800e60f50002b
:100ac4000c0034009e00780066804000100078001e
:100ad400e10f5000070034009e0078006880400059
:100ae40010007800e30f50000200340020002000c2
:100af400010037000000eb000080fa00000006004f
:100b04000400fa00100798000000eb00000f7800c2
:100b14001e009000100178001e0090006400400048
:100b240090007800400620000088b9008001780019
:100b34001e0090000080e800100078006a00b900f0
:100b44000000780000804100000141001e00900078
:100b54006800400090007800007122000088b9000d
:100b6400800178001e00900066004000900078002c
:100b7400803e20000088b900000078000080410019
:100b8400000f41001e00900010007800e10f50009b
:100b940001003a00d762a9001e0090006a004000dc
:100ba400100078000000e000030032001e0fea008d
:100bb4001e007800010037001e0078000080fa0053
:100bc400000006000e00fa00300798004107980064
:100bd40052079800630798000040eb0040479800d4
:100be4003e009000ce009000e00f5000e08f5800cf
:100bf40006003d003e009000ce0090006000100012
:100c0400e0801800008fbe00030037003e01900012
:100c1400ce019000028fbe005e00900080407800fc
:100c24006e009000004078006a040700f09f2c00da
:100c3400a1b923001e01be00800f5100818f59000d
:100c440003003400a0c0b300404798006800370098
:100c5400f00f2e00515f20001e01be00800f5100d6
:100c6400818f59000300340090c0b30040479800be
:100c74005f003700f0672900810920001e01be00d3
:100c8400800f5100818f59000300340080c0b300ed
:100c94004047980056003700f0232400f10020005c
:100ca4001e01be00800f5100818f590003003400e3
:100cb40070c0b300404798004d003700f069280029
:100cc400110020001e01be00800f5100818f5900c9
:100cd4000300340060c0b30040479800440037006c
:100ce400f0702200010020001e01be00800f5100a0
:100cf400818f59000300340050c0b300404798006e
:100d04003b003700703e2000010020001e01be00a1
:100d1400800f5100818f59000300340040c0b3009c
:100d240040479800320037003006200001002000c0
:100d34001e01be00800f5100818f59000300340052
:100d440030c0b30040479800290037001e01be00a0
:100d54009000200001002000800f5100818f590075
:100d64000300340020c0b30040479800200037003f
:100d74001e01be009000200001002000800f5100e1
:100d8400818f59001a003c0010c0b30040479800fe
:100d9400170037005e009000804078006e009000dd
:100da400004078000b0407001e00be00a2002000d3
:100db40003002000effd070000007800f5fe0700a7
:100dc4002a0407001e00be00a20020000300200029
:100dd400d9fd0700008fbe005e0090000000e9000e
:100de400500798004e4090000040e90040479800aa
:100df4004e4090000004e000e6ff3a003e00900000
:100e0400ce009000e00f5000e08f580008003d0035
:100e14005e009000804078006e00900000407800f2
:100e2400ec030700d0c2b30010040700d762a90086
:100e34000080fa00000006000200fa00000f7800ab
:100e44001e007800e10f500013003a00e40507008b
:100e54008040eb000040eb00de0307000030280078
:100e6400080407008040eb0010c0b300d90307005a
:100e740050312800030407008040eb0020c0b30079
:100e8400d4030700a0322800fe03070000712200eb
:100e9400010020005bfe07001e007800e20f5000f6
:100ea40009003a00ce0507008040eb000040eb004b
:100eb400c8030700f0332800f20307000071220082
:100ec400010020004ffe07000080fa000000060029
:100ed4000400fa00004f7800114798002247980058
:100ee4001e00fb00e10f50000c003200e10f500027
:100ef40003003c000000e000060032000d00370053
:100f0400e20f500007003200e30f500007003200e8
:100f140008003700b0c2b300d4030700d0c2b30046
:100f2400d203070070c9b300d003070070cbb3002d
:100f3400ce0307000080fa00000006000200fa0059
:100f4400004f78001e00fb00e10f5000200032002b
:100f5400e10f500003003c000000e00006003200f6
:100f640088003700e20f50002f003200e30f5000da
:100f7400700032008300370002408000134080007c
:100f840020408000314080000200400083804800ff
:100f9400404088005140880000408000114080009b
:100fa400e00f5000e08f58000700340040408000fc
:100fb40051408000e00f5000e08f580002003d00d7
:100fc4000040eb007000370010c0b3006e00370023
:100fd40002408000134080002040800031408000a7
:100fe4000000510081805900404088005140880031
:100ff4000040800011408000e00f5000e08f580056
:1010040007003d004040800051408000e00f500048
:10101400e08f5800020035000040eb005a00370012
:1010240010c0b30058003700024080001340800015
:101034002040800031408000009ab900040278000a
:10104400028bb90086027800050242000010b80045
:10105400010242008400780040408800514088002a
:101064000040800011408000e00f5000e08f5800e5
:101074000c0034002040800031408000e00f50001c
:10108400e08f580007003400404080005140800049
:10109400e00f5000e08f58000200340010c0b3008d
:1010a400390037000040800011408000e00f5000fc
:1010b400e08f58000c003d0020408000314080004b
:1010c400e00f5000e08f58000700340040408000db
:1010d40051408000e00f5000e08f580002003d00b6
:1010e40010c0b30028003700004080001140800089
:1010f400e00f5000e08f58000c00340020408000c6
:1011040031408000e00f5000e08f580007003d00a0
:101114004040800051408000e00f5000e08f5800b4
:1011240002003d0010c0b300170037000040eb0080
:1011340015003700044080001540800020408000e6
:10114400314080000001be000400be00fafc07002c
:1011540040408800514088000440800015408000d1
:1011640020408000314080000001be000400be0029
:10117400f1fc0700604088007140880010c0b30093
:1011840001003700000037000080fa00000006006c
:101194002800fa00881f78000040eb00004f780018
:1011a40010c0b3001047980010c0b3002047980047
:1011b40010c0b3004047980010c0b30050479800d7
:1011c4000040eb00604798000040eb003047980077
:1011d40040a7a9009ffd070000000000103a80000e
:1011e400680060000000e000fcff3a00000000001e
:1011f400113a800000002700808060000000230076
:10120400808f5000faff3a0000000000113a80007d
:1012140000022000008060000000e000fbff3200bc
:10122400b6fd0700a0020700d762a8000305070067
:10123400c30407008038210030030700e8040700d6
:101244008040eb000040eb00e2020700f03328008e
:101254000c0307008040eb000040eb00dd020700b8
:1012640040352800070307008040eb000040eb00f6
:10127400d80207001b01370013c8bf000004fb009d
:1012840088050700800f540006003a0013c8bf0009
:10129400e14f40000300320082050700e10f4000e7
:1012a400fdff3a007f0507000040780013e8b7000f
:1012b4001e4090000004e0001300320013c8bf0079
:1012c400e94f500010003c0013c8bf00e14f40003c
:1012d4000d0032008040eb000040eb00bd0207002f
:1012e400f0332800e702070030c1b30060479800dc
:1012f40031c1b3000040eb00b60207000040eb0030
:10130400104798001a0037001e4090000004e000c7
:101314001700320013c8bf00e94f50001400340016
:101324008040eb000040eb00aa020700f0332800e5
:10133400d40207008040eb000040eb00a502070048
:1013440030362800cf020700803821000100200039
:101354002cfd0700a20407008040eb000040eb00d6
:101364009c02070040352800c6020700dd00370054
:1013740013c8bf00e94f500080003c0013c8bf00f1
:10138400e14f40007d00320010c8bf000004e000bf
:1013940009003a0013c8bf000000fb00cf80de0044
:1013a400004088001140880010c8bf000040e800d9
:1013b40010e8b7006b003700024080001340800043
:1013c400b0cc2c00c1cc2000800f5100818f59007b
:1013d4001a003c0000408000114080006a09b900f6
:1013e400020178006002b900840178000301410021
:1013f400a30020000300b80001014100820078002e
:10140400004088001140880013c8bf000001fb00a1
:10141400cf91de00004080001140800002004000b7
:1014240083804800004088001140880010c8bf0035
:101434000040e80010e8b7004a003700024080008e
:1014440013408000c0cc2c00c1cc2000800f510080
:10145400818f5900110034001000200076fe07002f
:101464000028ef000228ef001068ef005c0407007a
:101474008040eb000040eb00560207004035280096
:10148400800207008040eb000040eb00510207009f
:1014940000c0eb001047980092003700c0cc2c002d
:1014a400c1cc2000004088001140880013c8bf0050
:1014b400e74f50001a003c000040800011408000bb
:1014c4006a09b900020178006002b9008401780059
:1014d40003014100a30020000300b8000101410002
:1014e40082007800004088001140880013c8bf00c3
:1014f4000001fb00cf91de0000408000114080001d
:1015040002004000838048000040880011408800a9
:1015140010c8bf000040e80010e8b7001100370011
:101524001000200044fe07000028ef000228ef000e
:101534001068ef002a0407008040eb000040eb0035
:1015440024020700403528004e0207008040eb00cb
:101554000040eb001f02070000c0eb00104798009a
:101564006000370000408000114080008001eb00e3
:101574003201200093fd07005a00370013c8bf0052
:10158400ea4f50000f003a0010c0b300004f78003b
:1015940000408000114080008001eb0032012000f7
:1015a40088fd07008040eb0010c0b300090207006b
:1015b400b0c2b3002d0207000040eb003047980092
:1015c4004800370013c8bf00eb4f50000a003a0030
:1015d40010c0b300004f78008040eb0010c0b3008f
:1015e400fc010700d0c2b3002002070010c0b30002
:1015f400304798003b00370013c8bf00ee4f50003f
:101604000a003a0010c0b300004f78008040eb009d
:1016140010c0b300ef01070070c9b3001302070044
:1016240020c0b300304798002e00370013c8bf0015
:10163400ef4f50000a003a0010c0b300004f78008a
:101644008040eb0010c0b300e201070070cbb30090
:101654000602070030c0b30030479800210037006d
:1016640013c8bf00ec4f500019003a000028ef00e7
:101674000228ef000428ef000628ef000828ef00f6
:101684000a28ef000c28ef000e28ef001068ef0086
:101694001168ef001268ef0000c0eb0010479800db
:1016a40000c0eb002047980000c0eb0040479800c2
:1016b40000c0eb00504798000040eb0060479800e2
:1016c4000040eb00004f7800000000005801370094
:1016d40013c8bf00ed4f500002003a0020c0b30011
:1016e400004f78001e4078000004e000e2fe320063
:1016f4004f01370013c8bf000004fb006904070052
:10170400800f540006003a0013c8bf00e14f4000a8
:101714000300320063040700e10f4000fdff3a00bc
:10172400600407000040780013e8b7002e409000e2
:101734000004e0000900320013c8bf00e94f500064
:1017440006003c0013c8bf00e14f40000300320014
:101754000040eb0020479800700037002e409000b6
:101764000004e0006d00320013c8bf00e94f5000d0
:101774006a00340013c8bf00ea4f500010003a005a
:101784003e4090000004e0000a0032000040800067
:1017940011408000330120000001eb0009fd070027
:1017a4008040eb0010c0b3008a010700b0c2b30050
:1017b400ae0107000040eb00304798001c013700e1
:1017c40013c8bf00eb4f500010003a003e40900099
:1017d400e14f50000a0032000040800011408000b8
:1017e400330120000001eb00f6fc07008040eb0011
:1017f40010c0b30077010700d0c2b3009b010700fb
:1018040010c0b300304798000901370013c8bf0067
:10181400ec4f500018003a000028ef000228ef00b7
:101824000428ef000628ef000828ef000a28ef003c
:101834000c28ef000e28ef001068ef001168ef008d
:101844001268ef0000c0eb001047980000c0eb00e6
:101854002047980000c0eb004047980000c0eb0010
:10186400504798000040eb00604798000040eb00b0
:10187400004f7800f200370013c8bf00ed4f50004e
:10188400e000320013c8bf00ee4f500010003a00d1
:101894003e409000e24f50000a00320000408000b9
:1018a40011408000330120000001eb00c5fc07005b
:1018b4008040eb0010c0b3004601070070c9b300bc
:1018c4006a01070020c0b30030479800d8003700f1
:1018d40013c8bf00ef4f5000cc003a003e409000c8
:1018e400e34f50000a0032000040800011408000a5
:1018f400330120000001eb00b2fc07008040eb0044
:1019040010c0b3003301070070cbb30057010700c8
:1019140030c0b30030479800c500370013c8bf007b
:10192400e94f50008a003c0013c8bf00e14f40005b
:101934008700320011c8bf000004e00009003a002b
:1019440013c8bf000000fb00cf80de0020408800e9
:101954003140880011c8bf000040e80011e8b7001a
:10196400750037002240800033408000b0cc2c004a
:10197400c1cc2000800f5100818f59001a003c0017
:1019840020408000314080006a09b90002017800db
:101994006002b9008401780003014100a300200023
:1019a4000300b80001014100820078002040880053
:1019b4003140880013c8bf000001fb00cf91de0056
:1019c40020408000314080000200400083804800b5
:1019d400204088003140880011c8bf000040e80062
:1019e40011e8b700540037002240800033408000e3
:1019f400c0cc2c00c1cc2000800f5100818f590035
:101a040016003400100020000bfd07000428ef002e
:101a14000628ef001168ef008040eb0030c0b300ef
:101a2400ec00070080372800160107000040800002
:101a340011408000330120000001eb0061fc07002d
:101a44003e4090000041eb0011c0b30020fd0700b0
:101a540000c0eb002047980075003700c0cc2c0074
:101a6400c1cc2000004088001140880013c8bf008a
:101a7400e74f50001a003c000040800011408000f5
:101a84006a09b900020178006002b9008401780093
:101a940003014100a30020000300b800010141003c
:101aa40082007800004088001140880013c8bf00fd
:101ab4000001fb00cf91de00004080001140800057
:101ac40002004000838048000040880011408800e4
:101ad40010c8bf000040e80010e8b7001600370047
:101ae40010002000d4fc07000428ef000628ef00b3
:101af4001168ef008040eb0030c0b300b500070070
:101b040080372800df00070000408000114080007b
:101b1400330120000001eb002afc07003e40900046
:101b24000041eb0011c0b300e9fc070000c0eb006a
:101b3400204798003e00370020408000314080005c
:101b440033012000120020001efc0700380037007b
:101b540013c8bf00ea4f50002e00320013c8bf0064
:101b6400eb4f50002d00320013c8bf00ee4f500061
:101b74002c00320013c8bf00ef4f50002b0032007e
:101b840013c8bf00ec4f500018003a000028ef00c3
:101b94000228ef000428ef000628ef000828ef00d1
:101ba4000a28ef000c28ef000e28ef001068ef0061
:101bb4001168ef001268ef0000c0eb0010479800b6
:101bc40000c0eb002047980000c0eb00404798009d
:101bd40000c0eb00504798000040eb0060479800bd
:101be4000040eb00004f78001500370013c8bf0019
:101bf400ed4f50000e003a0010c0b300004f7800c3
:101c04000b0037000000000009003700000000004e
:101c14000700370000000000050037000000000046
:101c2400030037000000000001003700000000003e
:101c34001e407800e14f5000aefe320080fd3700b8
:101c44007ffd37000200fa000000eb00000f78006f
:101c5400010037001e0fe8001e007800fd0f500041
:101c6400fcff3400e100070022e8b7000000eb00ad
:101c7400000f7800010037001e0fe8001e007800f6
:101c8400fd0f5000fcff340022c8bf000080fb00a1
:101c94004700de00004078000080fb006100600027
:101ca4000080fa00000006000000fa00c0122000c4
:101cb40092000700d742a9001602070000c2b30031
:101cc40060010700a00020008c00070080c2b30060
:101cd4009a010700100020008800070080c0b300ac
:101ce40096010700a00020008400070010c0b30084
:101cf40092010700c003200080000700c0c0b300a9
:101d04008e010700a00020007c00070060c0b30023
:101d14008a010700a00020007800070000c8b30073
:101d240086010700a000200074000700a00f200017
:101d3400720007000080fa00000006000400fa00a8
:101d440020479800314798002e4090000000fb0087
:101d5400e10f50000d003200e10f500003003c0081
:101d64000000e0000600320011003700e20f5000ce
:101d740009003200e30f50000a0032000c00370063
:101d840000c8b300004f78000c00370000ccb3004b
:101d9400004f78000900370040c9b300004f7800b5
:101da4000600370040cdb300004f78000300370031
:101db40000c8b300004f7800000000003e409000cf
:101dc4001e4f40001e4078005c0107000080fa00ae
:101dd400000006000400fa002047980031479800ec
:101de4002e4090000000fb00e10f50000d00320077
:101df400e10f500003003c000000e0000600320048
:101e040011003700e20f500009003200e30f5000c8
:101e14000a0032000c00370000ccb300004f7800f9
:101e24000c00370000c8b300004f780009003700e9
:101e340040c9b300004f78000600370040cdb3001e
:101e4400004f7800030037000040eb00004f78009b
:101e5400000000003e4090001e4f40001e407800ed
:101e6400360107000080fa00000006000200fa00b4
:101e7400004f78001e4078007c0007000080fa00c4
:101e8400000006000200fa00000f7800040037008a
:101e94001e007800104078001e0fe8007300070051
:101ea4001e007800104078000004e000f8ff3a00bb
:101eb4000080fa00000006000200fa00000f78001b
:101ec40008003700000000005eff07000000e0008b
:101ed400fdff3a001e007800104078001e0fe80055
:101ee400e2ff07001e007800104078000004e000c4
:101ef400f4ff3a000080fa00000006000400fa0033
:101f0400100798000000eb00000f78000200370073
:101f1400070007001e0fe8001e0090009e007800d6
:101f2400808f5000faff35000080fa0000000600a0
:101f34000200fa000000eb00000f780001003700f7
:101f44001e0fe800f06320009e007800808f500090
:101f5400fbff34000080fa00000006000200fa00d3
:101f640091168000f0872000010070009016880010
:101f7400e822a800e802a80066010700d742a800ea
:101f840064010700a0168000000f7800d742a90062
:101f94009116800000782f00008060009016880061
:101fa4009e00780021418800008020001e0060000f
:101fb4000000e000050032002141800000082000fc
:101fc4000100700020418800040037002141800096
:101fd400f00720000080600020418800204180003c
:101fe400004078000080fa00000006000400fa00b7
:101ff4009116800000002f000100700090168800e8
:10200400e822a900e802a80042010700d742a8007c
:1020140040010700a1168000010f7800d742a900f3
:10202400e822a900e802a8003a010700d742a80064
:1020340038010700d742a90091168000f0ff200064
:1020440000806000901688001e0078004800de00c2
:102054008040780000c8b30000c0600020479800aa
:102064002e4090000080fa00000006000400fa00f0
:1020740020479800ae409000014f780000cfb30095
:102084001e406000104798009e409000028220008d
:1020940001497800004180004400de006140600096
:1020a4000080fb00610060004c00dd00b21680007f
:1020b400f1ff2e008100610001007000b01688005d
:1020c400004180004500de00614060000080fb00ac
:1020d400610060004d00dd00b2168000f1ff2d00ac
:1020e4008100610001007000b0168800004180008a
:1020f4004600de00614060000080fb00610060007b
:102104004e00dd00b2168000f1ff2b00810061005b
:1021140001007000b0168800004180004700de0016
:10212400614060000080fb004f00dd00b2168000bb
:10213400f1ff27008100610001007000b0168800e3
:10214400e822a800e802a900f2000700d742a8008c
:10215400f0000700d742a900ee0007001e80fb0034
:102164004400dd00104798009e4090000282200049
:1021740001497800004180004400de0061406000b5
:102184000080fb00610060004c00dd00b21680009e
:10219400f1ff2e008100610001007000b01688007c
:1021a400004180004500de00614060000080fb00cb
:1021b400610060004d00dd00b2168000f1ff2d00cb
:1021c4008100610001007000b016880000418000a9
:1021d4004600de00614060000080fb00610060009a
:1021e4004e00dd00b2168000f1ff2b00810061007b
:1021f40001007000b0168800004180004700de0036
:10220400614060000080fb004f00dd00b2168000da
:10221400f1ff27008100610001007000b016880002
:10222400e822a800e802a900ba000700d742a800e3
:10223400b8000700d742a900b60007000080fa00e2
:10224400000006000400fa0020479800ae40900009
:10225400014f780000cfb3001e4060001047980083
:102264009e409000028220000149780000418000d5
:102274004400de00614060000080fb0061006000fb
:102284004c00dd00b2168000f1ff2e0081006100d9
:1022940001007000b0168800004180004500de0097
:1022a400614060000080fb00610060004d00dd00c3
:1022b400b2168000f1ff2d00810061000100700062
:1022c400b0168800004180004600de0061406000d6
:1022d4000080fb00610060004e00dd00b21680004b
:1022e400f1ff2b008100610001007000b01688002e
:1022f400004180004700de00614060000080fb0078
:102304004f00dd00b2168000f1ff2700810061005c
:1023140001007000b0168800e822a900e802a900b4
:102324007c000700d742a8007a000700d742a90022
:10233400780007000080fa00000006000400fa009c
:1023440020479800ae409000014f780000cfb300c2
:102354001e406000104798009e40900002822000ba
:1023640001497800004180004400de0061406000c3
:102374000080fb00610060004c00dd00b2168000ac
:10238400f1ff2e008100610001007000b01688008a
:10239400004180004500de00614060000080fb00d9
:1023a400610060004d00dd00b2168000f1ff2d00d9
:1023b4008100610001007000b016880000418000b7
:1023c4004600de00614060000080fb0061006000a8
:1023d4004e00dd00b2168000f1ff2b008100610089
:1023e40001007000b0168800004180004700de0044
:1023f400614060000080fb004f00dd00b2168000e9
:10240400f1ff27008100610001007000b016880010
:10241400e822a900e802a9003e000700d742a8006c
:102424003c000700d742a9003a0007001e80fb00c9
:102434004400dd00104798009e4090000282200076
:1024440001497800004180004400de0061406000e2
:102454000080fb00610060004c00dd00b2168000cb
:10246400f1ff2e008100610001007000b0168800a9
:10247400004180004500de00614060000080fb00f8
:10248400610060004d00dd00b2168000f1ff2d00f8
:102494008100610001007000b016880000418000d6
:1024a4004600de00614060000080fb0061006000c7
:1024b4004e00dd00b2168000f1ff2b0081006100a8
:1024c40001007000b0168800004180004700de0063
:1024d400614060000080fb004f00dd00b216800008
:1024e400f1ff27008100610001007000b016880030
:1024f400e822a900e802a90006000700d742a800c4
:1025040004000700d742a900020007000080fa0077
:10251400000006000200fa000000eb00000f780043
:10252400010037001e0fe800700c20009e007800a8
:10253400808f5000fbff34000080fa00000006008a
:102544004000fa00303a280014000900305f780097
:102554005e01b1005001b100803b2800f500470046
:1025640014000900b05878005001b100d03c280094
:10257400a10220008100470014000900b05878002f
:102584005001b1008040eb000040eb0011fe070059
:102594000e0078003bfe07008040eb0010c0b30043
:1025a4000cfe07007500470036fe07008040eb0074
:1025b40020c0b30007fe0700e038280031fe070002
:1025c4008040eb0030c0b30002fe0700a0022000f0
:1025d4000e0040002bfe07000080fa0000000600f9
:1025e4000000fa008040eb000040eb00f9fd07001a
:1025f400e038280023fe07008040eb0010c0b30041
:10260400f4fd0700e03828001efe07008040eb00c0
:1026140020c0b300effd0700e038280019fe0700d2
:102624008040eb0030c0b300eafd0700e03828002a
:1026340014fe07000080fa00000006000000fa0003
:102644000080eb00101688000080eb000016880064
:102654000080eb0020168800e622ef00e422ef0061
:102664000080eb00401788000000eb000080fa00b7
:10267400000006000200fa000000eb00000f7800e2
:10268400e982a900100020001cfe0700101680003b
:10269400610060000000e00001003a001e00a0009c
:1026a40010168000620060000000e00001003a00a3
:1026b4001e10a00010168000640060000000e000fe
:1026c40001003a001e20a00010168000680060007f
:1026d4000000e00001003a001e30a000e982a800da
:1026e400e9a2a9001000200004fe070010168000d3
:1026f400610060000000e00001003a001e40a000fc
:1027040010168000620060000000e00002003a0041
:10271400000220001e0f700010168000640060008c
:102724000000e00002003a00000420001e0f7000c8
:1027340010168000680060000000e00002003a000b
:10274400000820001e0f7000e9a2a800e9c2a90039
:1027540010002000e9fd07001016800061006000f1
:102764000000e00002003a00001020001e0f70007c
:1027740010168000620060000000e00002003a00d1
:10278400002020001e0f70001016800064006000fe
:102794000000e00002003a00004020001e0f70001c
:1027a40010168000680060000000e00002003a009b
:1027b400008020001e0f7000e9c2a800e9e2a90011
:1027c40010002000cdfd070010168000610060009d
:1027d4000000e00002003a00000021001e0f70001b
:1027e40010168000620060000000e00002003a0061
:1027f400000022001e0f70001016800064006000ac
:102804000000e00002003a00000024001e0f7000e7
:1028140010168000680060000000e00002003a002a
:10282400000028001e0f7000e9e2a8001e007800d6
:102834000080fa00000006000400fa002047980017
:102844008cff0700000f78002e4090000000fb0072
:10285400110020000008dd001e0060000000e00000
:102864000d003200a00f2000a4fd070081ff070027
:10287400000f78002e4090000000fb0011002000a3
:102884000008dd001e0060000000e00002003200cd
:1028940010002000010037000000eb000080fa0067
:1028a400000006000200fa000000eb00000f7800b0
:1028b400080037001e00780000407800deff0700a3
:1028c4000000e000020032001e007800050037001e
:1028d4001e0fe8001e007800ef0f5000f5ff3400d3
:1028e4000080eb000080fa00000006000000fa00ff
:1028f40000352c00100888000421ef002008800017
:102904000040a0000050a1002008880005e1a800b4
:102914009460a8000080fa0000000600809fbe00ba
:102924003400f80000002000a00188000000fa0034
:102934008460a9008081200030009000ea004000fb
:1029440080812000310098000080fa003400f900f2
:082954004f00be000040060028
:020000040000fa
:10295c00200800000600000000000000260800000f
:10296c003c00000000000000000800001400000003
:10297c0000000000140800000c0000000000000023
:04298c000000000047
:020000040000fa
:0200000401f009
:0400080007000000ed
:020000040000fa
:0200000401f009
:04000c00a30000004d
:020000040000fa
:0200000401f009
:04001000e600000006
:020000040000fa
:0200000401f009
:040014007700000071
:020000040000fa
:0200000401f009
:04001800e7000000fd
:020000040000fa
:0200000401f009
:04001c00c20000001e
:00000001FF
