:020000040000fa
:080000000002040000000000f2
:020000040000fa
:100008009a0200009a0200009a0200009a02000078
:100018009a0200009a0200009a0200009a02000068
:100028009a0200009a0200009a0200009a02000058
:100038009a0200009a0200009a0200009a02000048
:020000040000fa
:020000040000fa
:100400000f8020000eff27000e0188000000000072
:10041000000020000000e000020032000001200087
:10042000200288000c000700a032200001002000fc
:1004300011000700000020000000e0000200320070
:100440000000020000000000220302000000000083
:100450000040da000000fe004440a9000000200037
:100460000000e0000300320000002000a00188002e
:100470004440a80000000600910188008000780038
:100480000000eb0015003700e280400032a0b4000d
:100490009101ba00e280400032a0b4009102ba009b
:1004a000e280400032a0b4000002eb00472bde00e7
:1004b000f507b200602ce10004003a000059eb009f
:1004c0008301e900fdff3e00040037006128e100e0
:1004d000010032000082eb00040007001101ba00a5
:1004e0000200e000e8ff3a00000006003159ba00bf
:1004f0008301e9000c0032002159ba008301e900b0
:10050000080032000400e00003003a00e2804000ee
:1005100032a0b400f5ff370011d9ba008301e90019
:10052000faff3a008100e800e180400032a0b40008
:0c053000000006000040da000000fe00a1
:020000040000fa
:10053c000400fa0045e7a9004567a900203a8000ad
:10054c0000c0a10000d0a10000e0a100203a88006a
:10055c00213a800000fe2f00008060002001b300d3
:10056c00203a8800e0092000303a8800203a8000c8
:10057c000060a1000070a100203a880010028000e9
:10058c000050a1000060a1000070a10010028800c2
:10059c00803e2000000f78000a003700803e2000cb
:1005ac0010079800030037001e0090000000e900bf
:1005bc00100798001e0090000000e000faff3c00bd
:1005cc001e0fe9001e0078000000e000f3ff3c0065
:1005dc000080fa00000006000000fa00c022ef00c4
:1005ec000080eb0010168800c622ef000080eb00a4
:1005fc0040168800cc22ef000080eb0070168800bb
:10060c00d222ef000080eb00a0168800d822ef0069
:10061c000080eb00d0168800de22ef000080eb009b
:10062c0000178800e422ef000080eb0030178800f0
:10063c000080fa00000006000000fa00bcff070072
:08064c00e5ff0700ffff370086
:020000040000fa
:0406540000000000a2
:020000040000fa
:0200000401f009
:04000000ffff0000fe
:020000040000fa
:0200000401f009
:04000400ff000000f9
:020000040000fa
:0200000401f009
:04000800ffff0000f6
:020000040000fa
:0200000401f009
:04000c00fbff0000f6
:020000040000fa
:0200000401f009
:04001000beff00002f
:020000040000fa
:0200000401f009
:0400140077ff000072
:020000040000fa
:0200000401f009
:04001800ffff0000e6
:020000040000fa
:0200000401f009
:04001c00deff000003
:00000001FF
