:020000040000fa
:080000000002040000000000f2
:020000040000fa
:100008003e0500003e0500003e0500003e050000dc
:100018003e0500003e0500003e0500003e050000cc
:100028003e0500003e0500003e0500009a02000063
:100038003e0500003e0500003e0500003e050000ac
:100048003e0500003e0500003e0500003e0500009c
:100058003e0500003e0500003e0500003e0500008c
:100068003e0500003e0500003e0500003e0500007c
:100078003e0500003e0500003e0500003e0500006c
:100088003e0500003e0500003e0500003e0500005c
:100098003e0500003e0500003e0500003e0500004c
:1000a8003e0500003e0500003e0500003e0500003c
:1000b8003e0500003e0500003e0500003e0500002c
:1000c8003e0500003e0500003e0500003e0500001c
:1000d8003e0500003e0500003e0500003e0500000c
:1000e8003e0500003e0500003e0500003e050000fc
:1000f8003e0500003e0500003e0500003e050000ec
:100108003e0500003e0500003e0500003e050000db
:100118003e0500003e0500003e0500003e050000cb
:100128003e0500003e0500003e0500003e050000bb
:100138003e0500003e0500003e0500003e050000ab
:100148003e0500003e0500003e0500003e0500009b
:100158003e0500003e0500003e0500003e0500008b
:100168003e0500003e0500003e0500003e0500007b
:100178003e0500003e0500003e0500003e0500006b
:100188003e0500003e0500003e0500003e0500005b
:100198003e0500003e0500003e0500003e0500004b
:1001a8003e0500003e0500003e0500003e0500003b
:1001b8003e0500003e0500003e0500003e0500002b
:1001c8003e0500003e0500003e0500003e0500001b
:1001d8003e0500003e0500003e0500003e0500000b
:1001e8003e0500003e0500003e0500003e050000fb
:0801f8003e0500003e05000079
:020000040000fa
:100208003e0500003e0500003e0500003e050000da
:100218003e0500003e0500003e0500003e050000ca
:100228003e0500003e0500003e0500009a02000061
:100238003e0500003e0500003e0500003e050000aa
:100248003e0500003e0500003e0500003e0500009a
:100258003e0500003e0500003e0500003e0500008a
:100268003e0500003e0500003e0500003e0500007a
:100278003e0500003e0500003e0500003e0500006a
:100288003e0500003e0500003e0500003e0500005a
:100298003e0500003e0500003e0500003e0500004a
:1002a8003e0500003e0500003e0500003e0500003a
:1002b8003e0500003e0500003e0500003e0500002a
:1002c8003e0500003e0500003e0500003e0500001a
:1002d8003e0500003e0500003e0500003e0500000a
:1002e8003e0500003e0500003e0500003e050000fa
:1002f8003e0500003e0500003e0500003e050000ea
:100308003e0500003e0500003e0500003e050000d9
:100318003e0500003e0500003e0500003e050000c9
:100328003e0500003e0500003e0500003e050000b9
:100338003e0500003e0500003e0500003e050000a9
:100348003e0500003e0500003e0500003e05000099
:100358003e0500003e0500003e0500003e05000089
:100368003e0500003e0500003e0500003e05000079
:100378003e0500003e0500003e0500003e05000069
:100388003e0500003e0500003e0500003e05000059
:100398003e0500003e0500003e0500003e05000049
:1003a8003e0500003e0500003e0500003e05000039
:1003b8003e0500003e0500003e0500003e05000029
:1003c8003e0500003e0500003e0500003e05000019
:1003d8003e0500003e0500003e0500003e05000009
:1003e8003e0500003e0500003e0500003e050000f9
:0803f8003e0500003e05000077
:020000040000fa
:100400002f9120000eff27000e0188000000000041
:10041000000020000000e000020032000001200087
:10042000200288000c000700609d210001002000d0
:1004300011000700000020000000e0000200320070
:100440000000020000000000f203020000000000b3
:100450000040da000000fe004440a900000a20002d
:100460000000e0000300320000002000a00188002e
:100470004440a80000000600910188008000780038
:100480000000eb0015003700e280400032a0b4000d
:100490009101ba00e280400032a0b4009102ba009b
:1004a000e280400032a0b4000002eb00472bde00e7
:1004b000f507b200602ce10004003a000059eb009f
:1004c0008301e900fdff3e00040037006128e100e0
:1004d000010032000082eb00040007001101ba00a5
:1004e0000200e000e8ff3a00000006003159ba00bf
:1004f0008301e9000c0032002159ba008301e900b0
:10050000080032000400e00003003a00e2804000ee
:1005100032a0b400f5ff370011d9ba008301e90019
:10052000faff3a008100e800e180400032a0b40008
:1005300000000600809fbe003400f800000020008c
:10054000a00188000000fa008460a900b04080008b
:100550000000e800b0408800b1408000004080000a
:10056000808f500001003a00c402a900b140800011
:1005700010408000808f500001003a00c422a90082
:10058000b140800020408000808f500001003a0080
:10059000c442a900b140800030408000808f5000ec
:1005a00001003a00c462a900b140800040408000d0
:1005b000808f500001003a00e982a900b14080001c
:1005c00050408000808f500001003a00e9a2a9004d
:1005d000b140800080322200808f500005003a0038
:1005e0001628ef000080eb00201688000080eb004a
:1005f000401788000080fa003400f9004f00be0068
:10060000004006000800fa00200798003107980013
:100610002e019000be019000028fbe000400370042
:100620000081eb008081eb001e0f41005e974900c6
:100630001e00be00e00f5000e08f5800f8ff3a00a7
:100640000080fa00000006000800fa002007980069
:10065000310798002e019000be019000028fbe006d
:1006600007003700402e200001002000e5ff0700b2
:100670000081eb008081eb001e0f41005e97490076
:100680001e00be00e00f5000e08f5800f5ff3a005a
:100690000080fa00000006000400fa0045e7a90007
:1006a0004567a900203a800000c0a10000d0a10049
:1006b00000e0a100203a8800213a800000fe2f00cf
:1006c000008060002001b300203a8800e00920008b
:1006d000303a8800203a80000060a1000070a1003c
:1006e000203a8800100280000050a1000060a100a4
:1006f0000070a10010028800803e2000000f7800ea
:100700000a003700803e20001007980003003700e1
:100710001e0090000000e900100798001e009000e5
:100720000000e000faff3c001e0fe9001e00780008
:100730000000e000f3ff3c000080fa00000006002b
:100740000000fa000080eb0010168800c022ef00c5
:100750000080eb00101688000080eb002016880057
:10076000c822ef000080eb0030168800c822ef009e
:100770000080eb0070168800cc22ef000080eb00b8
:10078000701688000080eb00a0168800d222ef00cf
:100790000080eb00a01688000080eb00d0168800d7
:1007a000d822ef000080eb00d01688000080eb001c
:1007b00000178800de22ef000080eb0000178800a1
:1007c0000080eb0030178800e422ef000080eb008f
:1007d000301788000080eb00401788000080fa0086
:1007e000000006007000fa0040a7a900aaff070059
:1007f00000000000103a8000680060000000e00087
:10080000fcff3a0000000000113a800000002700c1
:100810008080600000002300808f5000faff3a00c3
:1008200000000000113a80000002200000806000fb
:100830000000e000fbff3200780b0700c0ff07005c
:10084000450b0700de070700d762a8000028ef006d
:100850000228ef000428ef000628ef000828ef0028
:100860000a28ef00fc09070080382100690807000a
:10087000210a0700803821006608070081c0b30004
:1008800010c0b300450007000040880081c0b300dd
:1008900020c0b300410007001040880081c0b300b1
:1008a00030c0b3003d0007002040880081c0b30085
:1008b00040c0b300390007003040880081c0b30059
:1008c00050c0b300350007004040880081c0b3002d
:1008d00060c0b30031000700504088008040eb004a
:1008e0000040eb0001080700203629002b08070014
:1008f0008040eb0010c0b300fc07070011408000ef
:1009000000408000811f7800801f78007037290028
:10091000801f78000e007800e0010700e68757008e
:100920000e0078001d0807008040eb0020c0b300d7
:10093000ee0707003140800020408000811f7800d2
:10094000801f780080382900801f78000e00780012
:10095000d2010700e68757000e0078000f08070055
:100960008040eb0030c0b300e0070700514080003a
:1009700040408000811f7800801f78009039290056
:10098000801f78000e007800c4010700e68757003a
:100990000e00780001080700b8ff37000800fa00d1
:1009a00060479800714798000000eb00000f780046
:1009b0006000b80010079800210798007e40900062
:1009c0000080fb00000f7800190037006e40900097
:1009d0007f4060000080fb007f00600042198000c3
:1009e00001fe2f00810061000100700040198800a5
:1009f0002023a900000000000019800061006000b1
:100a00000000e000fcff3200001880008000eb00d6
:100a10000e0107000001be001e009000ae00900015
:100a20004700070010079800210798001e0fe900f3
:100a30001e0078000000e000e4ff3c007e409000d3
:100a40000080fb00cf80de00fd0007000001be003b
:100a50001e009000ae00900096000700100798005e
:100a6000210798001e009000ae009000d300070000
:100a7000000078000080fa00000006000040da0064
:100a80000000fe000a00fa00e20f500020003e00c5
:100a900080488000e10f50000600320080232000d3
:100aa0004523200023232000042320000000e00031
:100ab00004003a008022200045222000232220004a
:100ac00004222000060028001403630003003a00fb
:100ad0000608780000002800140a700013a8a3007c
:100ae00001003a0013a0a0000200780005003700c2
:100af0001388a300feff32003102fb00840a780055
:100b00000000e9000000e000f9ff3a0008003700ab
:100b100033002000b3bf9f00c0bf9f00d1bf9f0024
:100b2000e2bf9f006a805700570507006fb9970022
:100b3000020078000080fa000000060003f0a20026
:100b4000889fbe008a9fbe008c1f7800fc000700b3
:100b5000030133006450e1004f0032006420e100e3
:100b60005200320003826c0007003b000905d000f0
:100b70000306d000820f54000c065d00020039000d
:100b80000200320089017800030678008582550052
:100b900004003d000003fd008103fd008502ea0022
:100ba0008b854200840f720002003b006000100041
:100bb000e08018006011b8000005eb007a28e10021
:100bc0000a00390006007800c75ddd00f707b200b3
:100bd000878075002d003700828171000a0178003e
:100be000610560008180d1000080d3008502e900aa
:100bf000f9ff3b00060440008784480002003b00e8
:100c000060041400e0841c000988a300070032007f
:100c10008a81710082817100610164008904d100c0
:100c20000884d3008b05e800170037000978a3007b
:100c300013003a000b00e000130034008b05e900bc
:100c40000804440089844c000a4474000978a30015
:100c50000d003a000b00e000070034008b05e900ae
:100c60000804440089844c0001003a000b00200075
:100c70000978a300f7ff32000001eb000200370003
:100c8000828171000a017800720007000cf0a70051
:100c900001f0a000bb0037006420e10002003a0030
:100ca000838f6c00bb0033000801be000200be0051
:100cb000b4003700889fbe008a9fbe008c1f78005a
:100cc0009f000700a600330003866c006450e1001b
:100cd0002e0032006420e100330032006150e10058
:100ce0002f0032006120e10031003200858555007f
:100cf000eb07b000090020000804200005003700c1
:100d00000804440089844c000a00310006034300b3
:100d100087834b000001530081815b00f8ff3300a3
:100d20000203be000800a0000804440089844c00af
:100d3000f6ff3900c639dd0083017300010032007f
:100d4000130020008904d1000884d3000998a3006f
:100d5000050032000800a7000300a0008904d100ac
:100d60000884d3008b05e8008904d1000884d300ef
:100d70000001eb000281d2003600070001f0a10063
:100d80000cf0a70001f0a0007e0037006420e10015
:100d9000800032000801be000200be00f7ff3700ed
:100da0006120e1007b0032006000b800f3ff3700f3
:100db0000000200001f82700f0ff37000001be000e
:100dc0004a0007000470a70003f0a1006509b10004
:100dd000160032000d0035006828e10006003500dd
:100de000f0ff2f00f1ff27000300e00013003b009d
:100df000010028000000050000004000818048003c
:100e00008502e900fcff3a0008003700f88f420035
:100e100002003c008000eb00000005008100d100d2
:100e20000080d3008502e800fcff3a000300e000e8
:100e300002003b0060001000e08018000000060087
:100e40004f89de0082017800550037006011b8003c
:100e50006300370081002000618055000b003d00d9
:100e60000b00200061fe2f000100e1001d00340096
:100e700082817100610164008904d1000884d3007b
:100e80000000e800faff3a007100200061006400f1
:100e90000300700002006000090032006104440099
:100ea000e0844c000988a500050032008b05e800ad
:100eb0006808e10002003a008904d1000884d300e8
:100ec000f20f20000258e10005003d00c75ddd0083
:100ed000f907b2008980750008007800000006005c
:100ee0000bf827008b00780000000500c70ade0021
:100ef000f107b200f50fb20008003200e1cf420066
:100f0000020032000170a00024000500810f700073
:100f1000010032000408050044000500810f700044
:100f200002003a00140005008502e90000004000bc
:100f300081c04800fcff3b000170a00024000500b8
:100f40000004be00e9ff07000003be000405be0068
:100f50000200be00e5ff0700844f75000000060098
:100f60000200be006450e100050036006420e1008c
:100f7000020036000968a30001003a000800be0024
:100f80000160a0004f0678004f05be004f04be0070
:100f900000000600f0ff2f00f1ff2700f9ff3700e7
:100fa000881f7800030478000300e00007003d007c
:100fb00060001000e080180060011900e081190055
:100fc00002003b0001f02d00030037000400070081
:100fd00008f0a70001f0a0004f0478000000060010
:100fe000889fbe008a9fbe000082700004027100cc
:100ff00004827100260032000004be000200be0020
:101000006011b8006b092000950220000182cf001a
:101010000a0039000541b1000082cf000700390005
:101020000541b1000982cf00040039000541b1003b
:101030000882cf00010039000541b100054252008d
:10104000120032000a003b008281710061016400dd
:101050008100d1000080d3008984d3000884d300ac
:101060008b05e8000442e800f7ff3a00070037006c
:101070000804440089844c00000048008180480036
:101080008b05e9000442e900f9ff3a0071ff07000f
:101090004f05be004f04be00000006000c00fa0021
:1010a000889fbe0000047800f0ff2700d0bf9f009b
:1010b0008004eb0099bf9f0088bf9f00a8bf9f00de
:1010c000200c2000b0bf9f0078815700cfb0970060
:1010d00070805700100007000fb89700094878008b
:1010e0008fb89700088050004f04be000080fa00bf
:1010f00000000600d0019000028151004240a9008a
:101100000300340010017800014978000208e8006b
:1011100001007800000006002f02b000889fbe008a
:101120008a9fbe008c9fbe008e1f780080067800cc
:10113000d1af9f0092b79f000007eb004403370038
:10114000dfa897008100e800d1af9f0051c2b30033
:10115000814f500003003a005fa897000006eb00a3
:1011600011003700bd0090000000fb000168a300e3
:10117000070032000e017800800078000d00780032
:10118000dcff07000000e00005003a0030033700f4
:101190008d0078003a030700e10f40002c03320075
:1011a0000e07e8002a0337008000780030417800fd
:1011b000d3c2b300834f51000c00320007003c0043
:1011c000edc15100834f51000a003200ebc14100d4
:1011d000834f51000d003a000800370003c3b300ed
:1011e000834f510009003a00060037000c30a00080
:1011f000edff37000c00a000ebff37000c10a00043
:10120000e9ff37000c20a000e7ff37000c18a3000f
:10121000010032000c00a1000c38a30001003200d4
:101220000c20a1000200fb000003b100e90f5000f8
:101230000c003e00010178000000eb006a00b900dc
:10124000b201fb000303b10000804100820078007e
:101250009201fb000303b100e98f5100f7ff360054
:10126000080037000000eb00a3c2b300834f510019
:1012700004003a001fb197004200780092b79f0027
:101280008100e8008001eb00a3b79f00e2c2b30039
:10129000914f11000c003a000ce0a0006441510095
:1012a000d14f1100030032000101780003027800e1
:1012b000090037001fb29700c402780094b79f005e
:1012c000a5b79f008100e800010178000900370000
:1012d0006a22b9000482410082007800b201fb005a
:1012e0000303b100e98f5100f9ff3600a4b79f0056
:1012f000f5ff3700b2407800d2af9f00c3c6b300fd
:1013000083cf5000250032000f003c0032c6b300ee
:1013100082cf5000a000320004003c000104e00035
:10132000d00232006b4151000f00370042c6b300bb
:1013300082cf5000170032006541410082cf50003b
:10134000b3003a001300370032c7b30082cf500019
:101350001f00320007003c006441510082cf500062
:10136000140032000241e80082cf5000a8003a0089
:101370001300370052c7b30082cf5000ab003200d9
:101380006341410082cf5000a1003a00a1d79f00e5
:101390000d003700a1d79f00a600370001012000f3
:1013a0000c48a30001003200010028000c867000e8
:1013b000d0ff3700a1d79f000c60a0009d00370030
:1013c000a1d79f000c50a0000c70a000990037001e
:1013d000a1d79f009fb39700c700780097b79f00e1
:1013e000b1b79f000100e00002003a00c98320006d
:1013f000b9b79f003fb197008000eb0001003700b4
:101400008100e800e2c178000304e000fcff3a003c
:10141000c1b79f002fb597000a00e0000500320019
:10142000cfb597008b0f5500020031008a0078007d
:10143000c1b79f00cfb097000004eb00810f5000b0
:101440000100360001045000680666002b003a00d7
:10145000110037003d0090000068a3000700320033
:101460000e017800010220000d00780021ff070026
:101470000000e00006003a00060037008d0078000a
:10148000000220007e020700e10f40000100320050
:101490000e07e8000804e9000800e000edff3a004c
:1014a0000084eb00150037003d0090000068a300a9
:1014b0000900320008007800b000fb00000478004a
:1014c0000e0178000d0078000aff07000000e00020
:1014d00008003a000f003700880078003100fb0058
:1014e000010478008d00780065020700e10f4000dc
:1014f000080032000e07e80006003700acb79f0076
:10150000080678003fb49700cfb497005fb5970006
:10151000efb59700090078008004e9000000e000c2
:10152000e1ff3a00b8b79f00c9b79f00dab79f0044
:10153000ebb79f000c0478002fb697000c00e0007a
:1015400043023200110037003d0090000068a30004
:10155000070032000e017800010220000d00780023
:10156000e4fe07000000e00006003a000600370035
:101570008d0078000002200041020700e10f4000ca
:10158000010032000e07e8000804e9000800e0004e
:10159000edff3a002e0237009fb297004504780015
:1015a00095b79f00cfc4de00614db9000802be00b0
:1015b0000a03be004822de00c828dd000482700055
:1015c000a4d79f000c48a300090032000404e000e7
:1015d00007003200e14f420005003200b4d79f00ff
:1015e000c8d79f0022002000c2b79f000300370029
:1015f000b8d79f0013002000c3b79f0024fd2f0021
:101600000f0242000402e800b4b79f0081ff3700d8
:10161000a1d79f0025fd2f0085824700b5b79f0009
:1016200016002000c6b79f007aff3700a1d79f00a1
:101630000c0cb3008c007800010cb20032003a00b0
:101640000c00e00005003d009fb097004105be0082
:101650004104be0091b79f00080037000c48a3006a
:101660000b0032001fb297004401be0094b79f00e8
:101670000204be004fcdde008a057800b8b79f0097
:10168000c9b79f00dab79f00ebb79f00090037008a
:101690009fb49700c900780099b79f00610ab9000c
:1016a000612bb900b4b79f00c5b79f00d6b79f00a4
:1016b000e7b79f003fb49700cfb497005fb597009e
:1016c000efb59700e00f5400e08f5c00e00f5d0085
:1016d000e08f5d0022003d003c00b3006022b800b6
:1016e0006033b8000804520089845a000a055b0080
:1016f0008b855b00b8b79f00c9b79f00dab79f0022
:10170000ebb79f00160037000c00e00004003d001e
:101710001fb497004803be004802be000500370012
:101720000c48a300050032001fb497004802be0019
:101730006033b80098b79f00050037009fb497004a
:10174000c900780099b79f00610ab8006033b800fb
:10175000b4b79f00c5b79f00d6b79f00e7b79f00fb
:10176000afb297000500e0000d003a00160020001f
:10177000a6b79f003fb49700cfb497005fb597001e
:10178000efb59700e00f5400e08f5c00e00f5d00c4
:10179000e08f5d00020032008004eb00a9b79f00db
:1017a0000c0578000a0cb2008ab79f0001042000e3
:1017b000810f55003400320003003c000a00e000b5
:1017c0000800320048003700010820008fb597005c
:1017d000818f550014003200010c2000818f5500cc
:1017e00041003a00c284200011c0b3003202be00a2
:1017f0003203be003fb49700cfb497005fb59700a7
:10180000efb597000440e10005c8e10006d0e10013
:1018100007d8e100330039008140e800f4cf5000e0
:10182000f2ff3a002f00370011c0b300040120007e
:10183000050020006033b8003fb49700cfb4970094
:101840005fb59700efb597000440e10005c8e100df
:1018500006d0e10007d8e10022003900490020004d
:101860000402d0008582d2000683d2008783d20092
:101870008904e900faff3a008140e800f0cf500007
:10188000edff3a001700370011c0b30084002000bc
:10189000050020006033b8003fb49700cfb4970034
:1018a0005fb59700efb597000440e10005c8e1007f
:1018b00006d0e10007d8e1000a0039003900200015
:1018c0000402d0008582d2000683d2008783d20032
:1018d0008904e900faff3a008140e800f5cf5000a2
:1018e000edff3a00a1d79f002fd597008a00fb009b
:1018f000afb597008b8f500002003d00abd79f0023
:10190000040037002fb19700810f510001003d0006
:10191000a1b79f000000e00003003200e300660072
:10192000010032000000e9000ce8a30006003200cc
:10193000afb19700830f5000020034000300500045
:10194000010037000000eb002fd297008400fb005d
:101950008002eb00f5af9f00810f500002003400c1
:1019600081005000f1af9f000c28a3003c00320022
:10197000610166000c18a3000f0032003d009000ca
:101980000068a30006003200b10220000200e0005f
:10199000010032008180e8000e0178000d00370060
:1019a000b00220000200e000010032000080e800e8
:1019b0008d0078000e0037000200e00010003200b9
:1019c0003d0090000068a300070032000e0178007f
:1019d000010220000d007800c6fd07000000e000b5
:1019e00006003a00060037008d0078000002200053
:1019f00023010700e10f4000010032000e07e8005c
:101a00007fab97000600e000520032000604780029
:101a10003d0090000068a300070032000e0178002e
:101a2000010320000d007800b2fd07000000e00077
:101a300006003a00060037008d0078000003200001
:101a40000f010700e10f4000010032000e07e8001f
:101a50000804e900eeff3a00f8af9f003d003700b0
:101a6000ffab97000700e000160032000c38a3001f
:101a700014003a00070478003d0090000068a300bd
:101a8000070032000e017800010220000d007800ee
:101a900098fd07000000e00006003a00060037004d
:101aa0008d00780000022000f5000700e10f4000e3
:101ab000010032000e07e8000804e900eeff3a00da
:101ac000f8af9f00610166000c18a3000f00320000
:101ad0003d0090000068a30006003200b102200023
:101ae0000200e000010032008180e8000e01780071
:101af0000d003700b00220000200e00001003200bb
:101b00000080e8008d0078000e0037000200e00041
:101b1000100032003d0090000068a3000700320072
:101b20000e017800010220000d00780071fd070011
:101b30000000e00006003a00060037008d00780043
:101b400000022000ce000700e10f4000010032003b
:101b50000e07e8002fb497000800e900c204dd007a
:101b6000c9af9f006301b90002057800baaf9f00ba
:101b70004300dd004184200081004000e1af9f0070
:101b800098003700afb597008b05e900abb79f0011
:101b9000000420008fb09700808f50006800320052
:101ba00003003c000100e000080032007300370031
:101bb000000820000fb19700800f51004c00320048
:101bc000000c2000800f51006c003a000c00e00077
:101bd0001e003d00efa997003304be002305be00a0
:101be0000802be000a03be003fb09700cfb09700c6
:101bf0005fb19700efb19700d4010700a0d79f0015
:101c00000000fb00cf80de006109b9000802be00c1
:101c10000a03be00360207003fb29700cfb297001a
:101c20005fb39700efb397000002520081825a0021
:101c300002035b0083835b00b4b79f00c5b79f00be
:101c4000d6b79f00e7b79f00250037000c48a300d8
:101c50001a0032003fb29700cfb297006fab9700e7
:101c60003604be002605be000801be000400be000a
:101c7000f4b79f0085bf9f0005010700a0d79f0014
:101c80000000fb00cf80de000801be00100107004d
:101c90007fb297008fba97000002520081825a00eb
:101ca0000404be006055b800b8b79f00c9b79f00d4
:101cb000dab79f00ebb79f0009003700efac970041
:101cc000190178003fb59700110009000285d8007e
:101cd000a2002000110009000280d800a1d79f00b7
:101ce000afd597000b43b000abd79f002300370060
:101cf000b08220000c58a30001003200a081200017
:101d00003fb29700cfb297005fb39700efb3970051
:101d1000cfa897008100e900050033008703d100b8
:101d20000683d3008582d3000482d300f9ff3700f5
:101d30006f02620060427a00a4d79f000f00370054
:101d40003fb09700cfb097005fb19700efb1970019
:101d50003faa97000402e900050033008301d10087
:101d60000281d3008180d3000080d300f9ff3700c7
:101d7000674060000043b000a0d79f00bd00900006
:101d8000afd297000500fb000168a30007003200f6
:101d90000e017800800078000d007800d5fc070067
:101da0000000e00005003a00050037008d007800d3
:101db00033000700e10f4000010032000e07e80089
:101dc0004fab970064035300c6af9f00bfab9700b3
:101dd000e3835300b7af9f006fac970068045400d3
:101de000e8af9f00afb497000900e00065ff3a003c
:101df0000c38a300160032007fad97000a00e00007
:101e0000130034000a0478003d0090000068a3002d
:101e1000070032000e017800010220000d0078005a
:101e2000b4fc07000000e00006003a00060037009e
:101e30008d0078000002200011000700e10f400033
:101e4000010032000e07e8000804e900eeff3a0046
:101e5000dfad97001b407800a0d79f000004e00092
:101e6000b7fc3a000e0078004f0778004f06be001e
:101e70004f05be004f04be002f02b1000000060057
:101e8000889fbe0001047800b80090008084eb00b9
:101e90000118a3003a003200180190000198a30035
:101ea00002003a000200e00035003a000190a00074
:101eb0003104980080047800f90fb2000200e000bd
:101ec00002003a0028009000000c7800ea8f5400cd
:101ed00005003a000178a30003003a00880078006a
:101ee000d0002000e6ff070018009000d800900006
:101ef000810f50000b0032000000e8001004980031
:101f00001800780009487800000ce80011c0b30000
:101f1000a090200001487800ea8f540018003a0091
:101f20000500370088007800094078001700070096
:101f30008004780012003700380090000088a30069
:101f40000f00320018019000a80090004800900097
:101f5000ccfa070098009000810f50000400320076
:101f6000380090000003b300300498008084eb0038
:101f70000000eb001004980028009000000c78008e
:101f8000090078004f04be00000006000200fa00bd
:101f9000889fbe00a0ff9f000104780038009000d9
:101fa0000068a30033003a00e200600005003a0038
:101fb0000003b30030049800110498000080eb0087
:101fc0002e003700d80490000900e00006003a0017
:101fd00012002000e680570048009000a9fa070090
:101fe0001904980023003700a80090000100e000c9
:101ff00008003a00d190200021049800010c7800dc
:102000002100200051049800110498000030a00025
:102010003004980018019000a8009000480090003b
:1020200098fa0700280090008080eb0011049800c7
:10203000aff8970001487800000ce8002ff89700ef
:10204000ea4f50000b003a00380090000088a300cf
:102050000800320018019000a8009000480090008d
:1020600088fa07000000eb0010049800a800900018
:10207000010c7800aff897000100fb004f04be0090
:102080000080fa000000060000c0da000000060030
:102090006022b800060220000000d0008180d2003b
:1020a0000482d2008582d2000000a0000202520009
:1020b00083825a00030031000202420083824a00f8
:1020c0000000a1000603e900f3ff3a00000006004b
:1020d000020ab900001bb9000200b80081004200ea
:1020e0008100430000000600889fbe008a9fbe005a
:1020f00030044200b0844a0030054b0090854b000c
:102100006000b1000898be000a90be000440e100e3
:1021100005c8e10006d0e10007d8e1000200310067
:10212000680040001008e8004f05be004f04be00e4
:1021300000000600889fbe008a9fbe003004be00db
:102140002005be000418540005985c0006185d00c8
:1021500007985d00110020000440e10005c8e1007f
:1021600006d0e10007d8e100010039008000eb0053
:10217000108810004f05be004f04be00000006008e
:102180001200fa00889fbe008a9fbe008c9fbe008e
:10219000e0b79f00f1b79f0082bf9f0093bf9f00f1
:1021a0000605be000404be000000eb00d0b79f008f
:1021b000c0b79f00b0b79f00a0b79f0090b79f0027
:1021c0000006eb005fb19700cfb09700820141009d
:1021d0003fb097000200e00004003d003700070018
:1021e0007e805700c0ff0700030037003300070060
:1021f0007e805700cfff0700dfb697000d00e0009c
:102200000c0035006fb29700ffb297000fbb97002c
:102210009fbb970010002000010020006011b80053
:1022200000027200818272000203730083837300d4
:102230001b0007000c06e80001042000810f560077
:10224000e0ff3a000d00e00004003d000802be007f
:102250000a03be007e805700a3ff07005fa8970017
:102260000000e00005003a001fb29700afb29700ef
:102270003fb39700cfb39700090007006fb09700f6
:10228000ffb097000fb997009fb997004f06be00a7
:102290004f05be004f04be000080fa00000006009b
:1022a0000100070000000600a4b79f00b5b79f001b
:1022b000c6b79f00d7b79f00000006004f09de0099
:1022c00082817100b3b79f004f01de008180400022
:1022d00082807000a1b79f008fb097004f09de0089
:1022e000000040000200700090b79f007fa8970098
:1022f0004f01de00818040008280700081b79f0026
:102300000d0007004f3ade0000004000040070009e
:10231000f0af9f00080007000402420085824a00d7
:1023200006034b0087834b00dfff07000802be0057
:102330000a03be00000006002fb29700bfb297004c
:102340004fb39700dfb3970000000600881f7800a6
:1023500018002000881f780089ff07008f87e90098
:102360004f04780000000600801feb0084ff070088
:102370008f87e90000000600889fbe008a9fbe008c
:10238000e00f5000e08f5800e00f5900e08f590037
:102390000c003d006044b8006055b80000005400d7
:1023a00081805c0002015d0083815d0018002000d7
:1023b0001500070008003d00180007000004eb00ae
:1023c000050037000004eb000f00070002003d008d
:1023d0001200070018002000dcff07000800e000e2
:1023e000060032006022b8006033b80000005200de
:1023f00081805a0002015b0083815b004f05be00b3
:102400004f04be0000000600e00f5200e08f5a00ab
:10241000e00f5b00e08f5b00000006006044b80046
:102420006055b8000402540085825c0006035d001c
:1024300087835d0000000600889fbe008a9fbe0063
:102440008c1f7800e00f5000e08f5800e00f59001b
:10245000e08f59000d003d006044b8006055b800a1
:102460000000540081805c0002015d0083815d00fa
:102470001c0020000820e10009a8e1000ab0e100ea
:102480000bb8e1000d003d00080037000006eb002e
:10249000e00f5200e08f5a00e00f5b00e08f5b001e
:1024a00006003d006044b8006055b80004025400c6
:1024b00085825c0006035d0087835d00aaff07003c
:1024c0000c00e000060032006022b8006033b80063
:1024d0000000520081805a0002015b0083815b0092
:1024e0004f0678004f05be004f04be0000000600f6
:1024f000889fbe008a9fbe008c1f78000006eb00fc
:10250000e00f5000e08f5800e00f5900e08f5900b5
:1025100007003d006044b8006055b800000054005a
:1025200081805c0002015d0083815d001c00200051
:10253000e00f5200e08f5a00e00f5b00e08f5b007d
:1025400007003d006044b8006055b8000402540024
:1025500085825c0006035d0087835d000c00a2009d
:102560000c0007000c00e000060032006022b800fa
:102570006033b8000000520081805a0002015b0005
:1025800083815b004f0678004f05be004f04be00fc
:1025900000000600889fbe008a9fbe008c9fbe0080
:1025a0000404b8000506b8008904460060854e00a2
:1025b0000606b8000a054600e0854e000706b8008a
:1025c0008b054600040eb800890446000a854e00bb
:1025d000e0854d00050eb8000a0546008b854e00cb
:1025e000060eb8008b0546000416b8000a05460022
:1025f0008b854e000516b8008b054600041eb800fa
:102600008b0546000800be000a01be004f06be0052
:0c2610004f05be004f04be000000060095
:020000040000fa
:10261c0020200000202000002020000020200000ae
:10262c00202000002020000020200000202000009e
:10263c0020200000202000000020000020200000ae
:10264c003d2000004d43000055200000436f00006a
:10265c007572000073650000203d00002020000012
:10266c00200000002020000020200000202000007e
:10267c0020540000454100004d2000003132000084
:10268c00202000002020000020200000002000005e
:10269c0020200000202000003230000031360000e5
:1026ac002f300000312f00003037000020200000b8
:1026bc002020000020000000466900006e61000030
:1026cc006c200000507200006a2e000020540000a4
:1026dc00454100004d200000313200002020000058
:1026ec0000410000443100003a2000002535000074
:1026fc006420000041440000323a000025350000ff
:10270c006400000041440000333a00002025000022
:10271c003564000020410000443400003a250000dc
:10272c003564000000410000443500003a200000f0
:10273c00253500006420000041440000363a0000ba
:10274c002535000064000000255800000000000042
:020000040000fa
:10275c000200fa000000eb00000f780001003700c7
:10276c001e0fe8001e007800fd0f5000fcff340027
:10277c00e10007000ee8b7000000eb00000f780046
:10278c00010037001e0fe8001e007800fd0f5000fe
:10279c00fcff34000ec8bf000080fb004700de00c9
:1027ac00004078000080fb00610060000080fa00af
:1027bc00000006000000fa00c01220009200070082
:1027cc00d742a9001602070000c2b300600107003f
:1027dc00a00020008c00070080c2b3009a01070003
:1027ec00100020008800070080c0b300960107008d
:1027fc00a00020008400070010c0b3009201070065
:10280c00c003200080000700c0c0b3008e01070089
:10281c00a00020007c00070060c0b3008a01070004
:10282c00a00020007800070000c8b3008601070054
:10283c00a000200074000700a00f20007200070009
:10284c000080fa00000006000400fa0020479800ff
:10285c00314798002e4090000000fb00e10f500023
:10286c000d003200e10f500003003c000000e000be
:10287c000600320011003700e20f50000900320050
:10288c00e30f50000a0032000c00370000c8b30000
:10289c00004f78000c00370000ccb300004f7800dc
:1028ac000900370040c9b300004f7800060037001c
:1028bc0040cdb300004f78000300370000c8b300d0
:1028cc00004f7800000000003e4090001e4f40007a
:1028dc001e4078005c0107000080fa000000060032
:1028ec000400fa0020479800314798002e409000d1
:1028fc000000fb00e10f50000d003200e10f500012
:10290c0003003c000000e00006003200110037001c
:10291c00e20f500009003200e30f50000a003200b1
:10292c000c00370000ccb300004f78000c003700cf
:10293c0000c8b300004f78000900370040c9b3004d
:10294c00004f78000600370040cdb300004f7800f0
:10295c00030037000040eb00004f7800000000003f
:10296c003e4090001e4f40001e407800360107008c
:10297c000080fa00000006000200fa00004f780008
:10298c001e4078007c0007000080fa000000060062
:10299c000200fa00000f7800040037001e007800d7
:1029ac00104078001e0fe800730007001e0078002e
:1029bc00104078000004e000f8ff3a000080fa00b4
:1029cc00000006000200fa00000f78000800370033
:1029dc00000000005eff07000000e000fdff3a0071
:1029ec001e007800104078001e0fe800e2ff070080
:1029fc001e007800104078000004e000f4ff3a005c
:102a0c000080fa00000006000400fa00100798008d
:102a1c000000eb00000f78000200370007000700f1
:102a2c001e0fe8001e0090009e007800808f500062
:102a3c00faff35000080fa00000006000200fa00e0
:102a4c000000eb00000f7800010037001e0fe800bb
:102a5c00f06320009e007800808f5000fbff340054
:102a6c000080fa00000006000200fa0091168000b7
:102a7c00f08720000100700090168800e822a80062
:102a8c00e802a80066010700d742a800640107000d
:102a9c00a0168000000f7800d742a9009116800084
:102aac0000782f0000806000901688009e0078004f
:102abc0081408800008020001e0060000000e000c3
:102acc0005003200814080000008200001007000e9
:102adc00804088000400370081408000f00720000f
:102aec0000806000804088008040800000407800ba
:102afc000080fa00000006000400fa009116800025
:102b0c0000002f000100700090168800e822a90038
:102b1c00e802a80042010700d742a80040010700c4
:102b2c00a1168000010f7800d742a900e822a90065
:102b3c00e802a8003a010700d742a80038010700b4
:102b4c00d742a90091168000f0ff200000806000a1
:102b5c00901688001e0078004800de008040780047
:102b6c0000c8b30000c06000204798002e409000c1
:102b7c000080fa00000006000400fa0020479800cc
:102b8c00ae409000014f780000cfb3001e406000b3
:102b9c00104798009e409000c280200001497800a8
:102bac00604080004400de00614060000080fb005b
:102bbc00610060004c00dd00b2168000f1ff2e00b9
:102bcc008100610001007000b01688006040800038
:102bdc004500de00614060000080fb006100600089
:102bec004d00dd00b2168000f1ff2d008100610068
:102bfc0001007000b0168800604080004600de00c6
:102c0c00614060000080fb00610060004e00dd0050
:102c1c00b2168000f1ff2b008100610001007000f2
:102c2c00b0168800604080004700de006140600004
:102c3c000080fb004f00dd00b2168000f1ff270082
:102c4c008100610001007000b0168800e822a80025
:102c5c00e802a900f2000700d742a800f000070024
:102c6c00d742a900ee0007001e80fb004400dd00e7
:102c7c00104798009e409000c280200001497800c7
:102c8c00604080004400de00614060000080fb007a
:102c9c00610060004c00dd00b2168000f1ff2e00d8
:102cac008100610001007000b01688006040800057
:102cbc004500de00614060000080fb0061006000a8
:102ccc004d00dd00b2168000f1ff2d008100610087
:102cdc0001007000b0168800604080004600de00e5
:102cec00614060000080fb00610060004e00dd0070
:102cfc00b2168000f1ff2b00810061000100700012
:102d0c00b0168800604080004700de006140600023
:102d1c000080fb004f00dd00b2168000f1ff2700a1
:102d2c008100610001007000b0168800e822a80044
:102d3c00e802a900ba000700d742a800b8000700b3
:102d4c00d742a900b60007000080fa000000060078
:102d5c000400fa0020479800ae409000014f780024
:102d6c0000cfb3001e406000104798009e409000ba
:102d7c00c280200001497800604080004400de00e1
:102d8c00614060000080fb00610060004c00dd00d1
:102d9c00b2168000f1ff2e0081006100010070006e
:102dac00b0168800604080004500de006140600085
:102dbc000080fb00610060004d00dd00b216800059
:102dcc00f1ff2d008100610001007000b016880039
:102ddc00604080004600de00614060000080fb0027
:102dec00610060004e00dd00b2168000f1ff2b0088
:102dfc008100610001007000b01688006040800006
:102e0c004700de00614060000080fb004f00dd00e9
:102e1c00b2168000f1ff27008100610001007000f4
:102e2c00b0168800e822a900e802a9007c0007007f
:102e3c00d742a8007a000700d742a9007800070003
:102e4c000080fa00000006000400fa0020479800f9
:102e5c00ae409000014f780000cfb3001e406000e0
:102e6c00104798009e409000c280200001497800d5
:102e7c00604080004400de00614060000080fb0088
:102e8c00610060004c00dd00b2168000f1ff2e00e6
:102e9c008100610001007000b01688006040800065
:102eac004500de00614060000080fb0061006000b6
:102ebc004d00dd00b2168000f1ff2d008100610095
:102ecc0001007000b0168800604080004600de00f3
:102edc00614060000080fb00610060004e00dd007e
:102eec00b2168000f1ff2b00810061000100700020
:102efc00b0168800604080004700de006140600032
:102f0c000080fb004f00dd00b2168000f1ff2700af
:102f1c008100610001007000b0168800e822a90051
:102f2c00e802a9003e000700d742a8003c000700b9
:102f3c00d742a9003a0007001e80fb004400dd00c8
:102f4c00104798009e409000c280200001497800f4
:102f5c00604080004400de00614060000080fb00a7
:102f6c00610060004c00dd00b2168000f1ff2e0005
:102f7c008100610001007000b01688006040800084
:102f8c004500de00614060000080fb0061006000d5
:102f9c004d00dd00b2168000f1ff2d0081006100b4
:102fac0001007000b0168800604080004600de0012
:102fbc00614060000080fb00610060004e00dd009d
:102fcc00b2168000f1ff2b0081006100010070003f
:102fdc00b0168800604080004700de006140600051
:102fec000080fb004f00dd00b2168000f1ff2700cf
:102ffc008100610001007000b0168800e822a90071
:10300c00e802a90006000700d742a8000400070048
:10301c00d742a900020007000080fa000000060059
:10302c000200fa000000eb00000f780001003700ee
:10303c001e0fe800700c20009e007800808f50005e
:10304c00fbff34000080fa00000006004000fa008c
:10305c003032290014000900305f78005e01b100a5
:10306c005001b10080332900f5004700140009001d
:10307c00b05878005001b100d0342900a1022000d2
:10308c008100470014000900b05878005001b100cd
:10309c008040eb000040eb0011fe07000e007800b2
:1030ac003bfe07008040eb0010c0b3000cfe070095
:1030bc007500470036fe07008040eb0020c0b300cf
:1030cc0007fe0700e030290031fe07008040eb00ce
:1030dc0030c0b30002fe0700a00220000e0040002a
:1030ec002bfe07000080fa00000006000000fa002a
:1030fc008040eb000040eb00f9fd0700e0302900b8
:10310c0023fe07008040eb0010c0b300f4fd070065
:10311c00e03029001efe07008040eb0020c0b30009
:10312c00effd0700e030290019fe07008040eb009e
:10313c0030c0b300eafd0700e030290014fe0700a0
:10314c000080fa00000006000200fa00000f780070
:10315c001e007800e40f50000500360010c0b300cc
:10316c0039ff0700c003200027fe070006003700c8
:10317c001e007800004078008040eb00d8fd07006e
:10318c00e030290002fe07000080fa000000060073
:10319c000000fa000080eb00101688000080eb00a5
:1031ac00001688000080eb0020168800e622ef0055
:1031bc00e422ef000080eb00401788000000eb00d9
:1031cc000080fa00000006000200fa000000eb008c
:1031dc00000f7800e982a900100020000afe070009
:1031ec0010168000610060000000e00001003a0051
:1031fc001e00a00010168000620060000000e000bd
:10320c0001003a001e10a00010168000640060003f
:10321c000000e00001003a001e20a0001016800003
:10322c00680060000000e00001003a001e30a000c1
:10323c00e982a800e9a2a90010002000f2fd070015
:10324c0010168000610060000000e00001003a00f0
:10325c001e40a00010168000620060000000e0001c
:10326c0002003a00000220001e0f700010168000b1
:10327c00640060000000e00002003a00000420003e
:10328c001e0f700010168000680060000000e00047
:10329c0002003a00000820001e0f7000e9a2a800ee
:1032ac001e0078000080fa00000006000400fa00fe
:1032bc0020479800c4ff0700000f78002e409000b4
:1032cc000000fb00110020000008dd001e00600063
:1032dc000000e0000d003200a00f2000cafd070026
:1032ec00b9ff0700000f78002e4090000000fb0093
:1032fc00110020000008dd001e0060000000e0004e
:10330c000200320010002000010037000000eb002a
:10331c000080fa00000006000c00fa000000eb0030
:10332c00000f7800180037001e007800004078006d
:10333c00deff07000000e000120032008040eb00ce
:10334c0020c0b30066fd07000e80e8009e1f7800c9
:10335c00a13a2900811f78004df70700e487570038
:10336c000e80e8008afd0700c04080000000e800e5
:10337c00c0408800c0408000f30f500001003400b2
:10338c001828ef001e0fe8001e007800ef0f500009
:10339c00e5ff34000000eb000080fa00000006009e
:020000040000fa
:1033ac000c080000060000000000000018080000d7
:1033bc000200000000000000000800000c000000eb
:1033cc0000000000120800000600000000000000d1
:1033dc001a080000ca000000020000003031320060
:1033ec003334350036373800394142004344450008
:1033fc00460030003132330034353600373839006e
:10340c00616263006465660000286e00756c6c0078
:10341c0029000000010000000000000000000a006c
:10342c00000000000000000000640000000000002c
:10343c0000000000e8030000000000000000100085
:10344c00270000000000000000a086000100000022
:10345c000000000040420f0000000000000080004f
:10346c0096980000000000000000e100f505000047
:10347c000000000000ca9a003b00000000000000a1
:10348c00e40b5400020000000000e800764817002e
:10349c00000000000010a500d4e8000000000000af
:1034ac00a0724e0018090000000040007a10f300d2
:1034bc005a0000000080c600a47e8d0003000000ae
:1034cc0000c16f00f2862300000000008a5d7800c6
:1034dc004563010000006400a7b3b600e00d0000d6
:1034ec0000e889000423c7008a000000e4080000fb
:1034fc0026000000020000000b090000000b090070
:10350c0009000000000200000d090000000d090078
:10351c000e0201000000000000000000000000008e
:10352c000602020000000000e40800000a09000086
:10353c00060000000000000010090000020000005e
:0c354c0002000000010000000000000070
:020000040000fa
:103558000000fa0010f82f00601988000080eb00c6
:10356800501988002e23ef002023ef002023a90004
:103578002043a8002143a800001980000080a10072
:103588000090a100001988002063a900001980009c
:103598000050a1000060a1000070a100001988007f
:1035a8002223ef001019800000d0a10000e0a10044
:1035b80000f0a100101988002203a9002423ef00bd
:1035c800f0c0b30024e3b70025e3a9002119800067
:1035d800f00f2e0080806000003020000100700095
:1035e800201988003223ef00901980000000a10004
:1035f8000010a1000020a100901988002623ef00e8
:103608002823ef0028e3a90021e3a8000080fa009e
:10361800000006000000fa0040062000100888009c
:103628000421ef00200880000040a1000050a10004
:103638002008880005e1a8009460a8000080fa002e
:043648000000060078
:020000040000fa
:0200000401f009
:0400080007000000ed
:020000040000fa
:0200000401f009
:04000c00a30000004d
:020000040000fa
:0200000401f009
:04001000e600000006
:020000040000fa
:0200000401f009
:040014007700000071
:020000040000fa
:0200000401f009
:04001800e7000000fd
:020000040000fa
:0200000401f009
:04001c00c20000001e
:00000001FF
