:020000040000fa
:080000000002040000000000f2
:020000040000fa
:10000800c0050000c0050000c0050000c0050000d4
:10001800c0050000c0050000c0050000c0050000c4
:10002800c0050000c0050000c00500009e020000d9
:10003800c0050000c0050000c0050000c0050000a4
:10004800c0050000c0050000c0050000c005000094
:10005800c0050000c0050000c0050000c005000084
:10006800c0050000c0050000c0050000c005000074
:10007800c0050000c0050000c0050000c005000064
:10008800c0050000c0050000c0050000c005000054
:10009800c0050000c0050000c0050000c005000044
:1000a800c0050000c0050000c0050000c005000034
:1000b800c0050000c0050000c0050000c005000024
:1000c800c0050000c0050000c0050000c005000014
:1000d800c0050000c0050000c0050000c005000004
:1000e800c0050000c0050000c0050000c0050000f4
:1000f800c0050000c0050000c0050000c0050000e4
:10010800c0050000c0050000c0050000c0050000d3
:10011800c0050000c0050000c0050000c0050000c3
:10012800c0050000c0050000c0050000c0050000b3
:10013800c0050000c0050000c0050000c0050000a3
:10014800c0050000c0050000c0050000c005000093
:10015800c0050000c0050000c0050000c005000083
:10016800c0050000c0050000c0050000c005000073
:10017800c0050000c0050000c0050000c005000063
:10018800c0050000c0050000c0050000c005000053
:10019800c0050000c0050000c0050000c005000043
:1001a800c0050000c0050000c0050000c005000033
:1001b800c0050000c0050000c0050000c005000023
:1001c800c0050000c0050000c0050000c005000013
:1001d800c0050000c0050000c0050000c005000003
:1001e800c0050000c0050000c0050000c0050000f3
:0801f800c0050000c005000075
:020000040000fa
:10020800c0050000c0050000c0050000c0050000d2
:10021800c0050000c0050000c0050000c0050000c2
:10022800c0050000c0050000c00500009e020000d7
:10023800c0050000c0050000c0050000c0050000a2
:10024800c0050000c0050000c0050000c005000092
:10025800c0050000c0050000c0050000c005000082
:10026800c0050000c0050000c0050000c005000072
:10027800c0050000c0050000c0050000c005000062
:10028800c0050000c0050000c0050000c005000052
:10029800c0050000c0050000c0050000c005000042
:1002a800c0050000c0050000c0050000c005000032
:1002b800c0050000c0050000c0050000c005000022
:1002c800c0050000c0050000c0050000c005000012
:1002d800c0050000c0050000c0050000c005000002
:1002e800c0050000c0050000c0050000c0050000f2
:1002f800c0050000c0050000c0050000c0050000e2
:10030800c0050000c0050000c0050000c0050000d1
:10031800c0050000c0050000c0050000c0050000c1
:10032800c0050000c0050000c0050000c0050000b1
:10033800c0050000c0050000c0050000c0050000a1
:10034800c0050000c0050000c0050000c005000091
:10035800c0050000c0050000c0050000c005000081
:10036800c0050000c0050000c0050000c005000071
:10037800c0050000c0050000c0050000c005000061
:10038800c0050000c0050000c0050000c005000051
:10039800c0050000c0050000c0050000c005000041
:1003a800c0050000c0050000c0050000c005000031
:1003b800c0050000c0050000c0050000c005000021
:1003c800c0050000c0050000c0050000c005000011
:1003d800c0050000c0050000c0050000c005000001
:1003e800c0050000c0050000c0050000c0050000f1
:0803f800c0050000c005000073
:020000040000fa
:100400006f8520000eff27000e018800000000000d
:10041000000020000000e000020032000001200087
:10042000200288000c0007006098210001002000d5
:1004300011000700000020000000e0000200320070
:100440000000020000000000f603020000000000af
:100450000040da000000fe004440a900000a20002d
:100460000000e0000300320000002000a00188002e
:100470004440a80000000600910188008000780038
:100480000000eb0015003700e280400032a0b4000d
:100490009101ba00e280400032a0b4009102ba009b
:1004a000e280400032a0b4000002eb00472bde00e7
:1004b000f507b200602ce10004003a000059eb009f
:1004c0008301e900fdff3e00040037006128e100e0
:1004d000010032000082eb00040007001101ba00a5
:1004e0000200e000e8ff3a00000006003159ba00bf
:1004f0008301e9000c0032002159ba008301e900b0
:10050000080032000400e00003003a00e2804000ee
:1005100032a0b400f5ff370011d9ba008301e90019
:10052000faff3a008100e800e180400032a0b40008
:10053000000006007408040000000000809fbe0058
:100540003400f80000002000a00188000000fa003c
:100550008460a900b04080000000e800b04088003e
:10056000b140800000408000808f500001003a00c0
:10057000c402a900b140800010408000808f50006c
:1005800001003a00c422a900b14080002040800050
:10059000808f500001003a00c442a900b1408000a1
:1005a00030408000808f500001003a00c462a900f2
:1005b000b140800040408000808f500001003a0030
:1005c000e982a900b140800050408000808f500037
:1005d00001003a00e9a2a900b14080008032220067
:1005e000808f500005003a001628ef000080eb00d5
:1005f000201688000080eb00401788000080fa0079
:100600003400f9004f00be00004006000800fa0068
:1006100020079800310798002e019000be0190003d
:10062000028fbe00040037000081eb008081eb00e8
:100630001e0f41005e9749001e00be00e00f5000f3
:10064000e08f5800f8ff3a000080fa000000060032
:100650000800fa0020079800310798002e0190004a
:10066000be019000028fbe0007003700402e200020
:1006700001002000e5ff07000081eb008081eb0016
:100680001e0f41005e9749001e00be00e00f5000a3
:10069000e08f5800f5ff3a000080fa0000000600e5
:1006a0000400fa0045e7a9004567a900203a800048
:1006b00000c0a10000d0a10000e0a100203a880005
:1006c000213a800000fe2f00008060002001b3006e
:1006d000203a8800e0092000303a8800203a800063
:1006e0000060a1000070a100203a88001002800084
:1006f0000050a1000060a1000070a100100288005d
:10070000803e2000000f78000a003700803e200065
:1007100010079800030037001e0090000000e90059
:10072000100798001e0090000000e000faff3c0057
:100730001e0fe9001e0078000000e000f3ff3c00ff
:100740000080fa00000006000000fa000080eb00c4
:1007500010168800c022ef000080eb001016880001
:100760000080eb0020168800c822ef000080eb001c
:1007700030168800c822ef000080eb007016880059
:10078000cc22ef000080eb00701688000080eb00a8
:10079000a0168800d222ef000080eb00a01688008f
:1007a0000080eb00d0168800d822ef000080eb001c
:1007b000d01688000080eb0000178800de22ef00d2
:1007c0000080eb00001788000080eb0030178800e5
:1007d000e422ef000080eb00301788000080eb007f
:1007e000401788000080fa00000006007000fa0040
:1007f00040a7a900aaff070000000000103a8000ef
:10080000680060000000e000fcff3a00000000000b
:10081000113a800000002700808060000000230063
:10082000808f5000faff3a0000000000113a80006b
:1008300000022000008060000000e000fbff3200aa
:10084000da0a0700c0ff07007f0a070083070700d6
:10085000d762a8000028ef000228ef000428ef006c
:100860000628ef000828ef000a28ef00a10907007a
:10087000803821000e080700c609070080382100d3
:100880000b08070081c0b30010c0b300840007004c
:100890005115200001017800110009000200d80064
:1008a00080007800000720000088b9000000780070
:1008b0000040880081c0b30020c0b300780007006a
:1008c00071f22f0080804000f01d200000017800b0
:1008d000110009008200d80080007800c0072000c5
:1008e0000088b90000007800900db000104088002a
:1008f00081c0b30030c0b30069000700f1f22f00df
:1009000080804000101e20000001780011000900c6
:100910008200d80080007800200720000088b900fd
:1009200000007800100db0002040880081c0b300a6
:1009300040c0b3005a000700c1ec2f008080400087
:10094000f01c200000017800110009008200d8008e
:1009500080007800300720000088b900000078008f
:100960004013b0003040880081c0b30050c0b300d5
:100970004b00070031f12f0080804000800b2000e9
:1009800000017800110009008200d8008000780082
:10099000e00220000088b90000007800d00eb0000e
:1009a0004040880081c0b30060c0b3003c00070035
:1009b000a1f02f0080804000b019200000017800d5
:1009c000110009008200d800800078009006200005
:1009d0000088b90000007800600fb0005040880027
:1009e0008040eb000040eb0067070700002b290068
:1009f000910707008040eb0010c0b30062070700ba
:100a00001140800000408000811f7800801f780026
:100a1000502c2900801f78000e007800b9010700d3
:100a2000e68757000e007800830707008040eb0040
:100a300020c0b300540707003140800020408000f0
:100a4000811f7800801f7800602d2900801f7800aa
:100a50000e007800ab010700e68757000e00780013
:100a6000750707008040eb0030c0b3004607070061
:100a70005140800040408000811f7800801f780036
:100a8000702e2900801f78000e0078009d0107005d
:100a9000e68757000e0078006707070079ff3700e8
:100aa0000800fa0060479800714798000000eb00ca
:100ab000000f78006000b800100798002107980028
:100ac0007e4090000080fb00000f78001900370086
:100ad0006e4090007f4060000080fb007f0060005f
:100ae0004219800001fe2f008100610001007000aa
:100af000401988002023a900000000000019800090
:100b0000610060000000e000fcff3200001880007f
:100b10008000eb00e00007000001be001e00900016
:100b2000ae009000190007001007980021079800f8
:100b30001e0fe9001e0078000000e000e4ff3c000a
:100b40007e4090000080fb00cf80de00cf000700d9
:100b50000001be001e009000ae009000680007007b
:100b600010079800210798001e009000ae0090002a
:100b7000a5000700000078000080fa0000000600d1
:100b80000040da000000fe0003f0a200889fbe00d3
:100b90008a9fbe008c1f7800fc0007000301330011
:100ba0006450e1004f0032006420e1005200320046
:100bb00003826c0007003b000905d0000306d0004b
:100bc000820f54000c065d00020039000200320062
:100bd00089017800030678008582550004003d00f5
:100be0000003fd008103fd008502ea008b854200c1
:100bf000840f720002003b0060001000e0801800cb
:100c00006011b8000005eb007a28e1000a00390005
:100c100006007800c75ddd00f707b2008780750029
:100c20002d003700828171000a01780061056000a3
:100c30008180d1000080d3008502e900f9ff3b00ec
:100c4000060440008784480002003b006004140052
:100c5000e0841c000988a300070032008a8171002b
:100c600082817100610164008904d1000884d3008d
:100c70008b05e800170037000978a30013003a003d
:100c80000b00e000130034008b05e9000804440069
:100c900089844c000a4474000978a3000d003a00ce
:100ca0000b00e000070034008b05e9000804440055
:100cb00089844c0001003a000b0020000978a30051
:100cc000f7ff32000001eb00020037008281710063
:100cd0000a017800720007000cf0a70001f0a000e4
:100ce000bb0037006420e10002003a00838f6c00f3
:100cf000bb0033000801be000200be00b400370094
:100d0000889fbe008a9fbe008c1f78009f0007004e
:100d1000a600330003866c006450e1002e00320010
:100d20006420e100330032006150e1002f00320006
:100d30006120e1003100320085855500eb07b000ed
:100d400009002000080420000500370008044400c2
:100d500089844c000a0031000603430087834b005e
:100d60000001530081815b00f8ff33000203be00e5
:100d70000800a0000804440089844c00f6ff3900f4
:100d8000c639dd008301730001003200130020002a
:100d90008904d1000884d3000998a300050032001b
:100da0000800a7000300a0008904d1000884d30034
:100db0008b05e8008904d1000884d3000001eb0012
:100dc0000281d2003600070001f0a1000cf0a7005c
:100dd00001f0a0007e0037006420e10080003200b6
:100de0000801be000200be00f7ff37006120e100ed
:100df0007b0032006000b800f3ff370000002000e5
:100e000001f82700f0ff37000001be004a0007008c
:100e10000470a70003f0a1006509b10016003200bc
:100e20000d0035006828e10006003500f0ff2f00b6
:100e3000f1ff27000300e00013003b000100280041
:100e40000000050000004000818048008502e900a4
:100e5000fcff3a0008003700f88f420002003c0017
:100e60008000eb00000005008100d1000080d3006d
:100e70008502e800fcff3a000300e00002003b00ae
:100e800060001000e0801800000006004f89de00be
:100e900082017800550037006011b8006300370008
:100ea00081002000618055000b003d000b002000f8
:100eb00061fe2f000100e1001d00340082817100fd
:100ec000610164008904d1000884d3000000e800b7
:100ed000faff3a0071002000610064000300700016
:100ee000020060000900320061044400e0844c000c
:100ef0000988a500050032008b05e8006808e100bc
:100f000002003a008904d1000884d300f20f2000c7
:100f10000258e10005003d00c75ddd00f907b200a1
:100f20008980750008007800000006000bf8270093
:100f30008b00780000000500c70ade00f107b20050
:100f4000f50fb20008003200e1cf4200020032008b
:100f50000170a00024000500810f70000100320024
:100f60000408050044000500810f700002003a00eb
:100f7000140005008502e9000000400081c048001f
:100f8000fcff3b000170a000240005000004be002f
:100f9000e9ff07000003be000405be000200be001a
:100fa000e5ff0700844f7500000006000200be0048
:100fb0006450e100050036006420e10002003600c4
:100fc0000968a30001003a000800be000160a0000b
:100fd0004f0678004f05be004f04be00000006001b
:100fe000f0ff2f00f1ff2700f9ff3700881f78007e
:100ff000030478000300e00007003d0060001000db
:10100000e080180060011900e081190002003b0037
:1010100001f02d00030037000400070008f0a700ce
:1010200001f0a0004f04780000000600889fbe0079
:101030008a9fbe0000827000040271000482710069
:10104000260032000004be000200be006011b8009d
:101050006b092000950220000182cf000a003900b0
:101060000541b1000082cf00070039000541b10001
:101070000982cf00040039000541b1000882cf0089
:10108000010039000541b100054252001200320052
:101090000a003b0082817100610164008100d1007f
:1010a0000080d3008984d3000884d3008b05e80036
:1010b0000442e800f7ff3a00070037000804440044
:1010c00089844c0000004800818048008b05e900bd
:1010d0000442e900f9ff3a0071ff07004f05be0026
:1010e0004f04be0000000600881f7800020478004c
:1010f00008017800cc010700080040004f04780088
:10110000000006000000fa00881f78000004780044
:10111000ea8157003fb99700880078004087200097
:10112000070007000000e000020035008040eb00ef
:10113000017478004f0478000080fa000000060077
:101140006200fa00889fbe008a1f780000057800c0
:1011500081047800020478008300780080f92f0071
:101160000f004000ae0307009a979f00a9979f00c9
:101170000000eb00b09f9f001885fb008a04fb0075
:101180000a05ea004f55de0050022000808f54000f
:101190000d003200e10f55000b003a000a01780003
:1011a000880078002f9097009f919700030001001e
:1011b000a0979f000000e0008e0032003f9897004b
:1011c0000000e800b09f9f000a0444005002200085
:1011d000808f5400040032000900e000e6ff3a006e
:1011e0003f989700840037000000eb00909f9f001d
:1011f000809f9f00f0979f00e0979f00d0979f00ef
:10120000c0979f00070037000185200001005000b3
:10121000000040004184200061007800df989700c2
:1012200001007000d09f9f008804780009047800b6
:10123000384578008a00fb00008520008101070006
:101240000000e000f0ff3a00a1c2b300814f55005a
:101250000e003a00cf8897000180e900c08f9f0000
:1012600010007800c09f9f000000e00005003d00d6
:101270000000ea00c09f9f005f9897000020a00038
:10128000d09f9f000904e8000f003700c09f9f0017
:101290000000eb0005003700f2ff2700820f50002e
:1012a000020032006a01b90002804000090478009f
:1012b00088047800b900fb000103b100e98f5000f9
:1012c000f5ff3600c09f9f00e0c2b300984f1000aa
:1012d000020032000080eb0019003700a0c2b3000a
:1012e000d84f100007003a00cf8897000180e9002e
:1012f000c08f9f0010007800a09f9f000804e800a6
:10130000100037000000eb00a09f9f0088007800cd
:1013100005003700f3ff2700830f50000200320062
:101320006a02b900040041000104780088007800d6
:101330003101fb000203b100e90f5100f5ff360057
:10134000a09f9f00984478008900fb00c083200084
:101350003c0107000000e000020032000804e80041
:10136000010037008044eb00c97f9f0080c6b300b6
:1013700080cf540004003a0098cf14000a003a00cd
:101380006640500006003700c0c6b30080cf54004e
:1013900005003a0098cf140003003a006540400071
:1013a000c07f9f000804e8001801fb00e3fb2f004a
:1013b0008f81410081f92f008f804000a0f92f001c
:1013c0000f004000100007000000e00009003a0094
:1013d000e1fb2f008f804000a0f92f000f0040009c
:1013e000530207000000e000020035000804e80096
:1013f00061ff37000080eb004f0578004f04be000e
:101400000080fa0000000600881f7800e4c6b300e0
:10141000844f5100b600320010003c006b42520075
:10142000844f51001800320005003c0054c2b30044
:10143000844f5100ee00320084c5b3000f00370026
:1014400044c6b300844f510014003200654242008c
:10145000844f5100e9003a001000370004c7b30080
:10146000844f5100d50032005300350065424200e0
:10147000844f51005000320063424200844f5100bb
:10148000de003a004c0037001181e9008208780044
:10149000f000900012417800d600370020629000e2
:1014a000c5c6b300854f520007003a00910278008c
:1014b00064825200840878001402be004fabde0044
:1014c000860378001100370015c7b300854f52001e
:1014d00003003200a5c6b300854f520006003a0053
:1014e0009102780068825200840878005403be009c
:1014f0004402be00050037001182e900840878002c
:1015000014027800cfa2de00612bb9000498be005f
:101510000690be00a060900088c6b30088cf50003f
:101520000d00320028c6b30088cf500004003a00f6
:101530000402fb00cfa2de00612bb90008003700d7
:1015400048c7b30088cf500003003200664444000f
:1015500088cf500004003a00cfa2de00612bb90012
:101560000498be000690be003002be002003be00fc
:10157000f0009000e00f5200e08f5a00e00f5b0097
:10158000e08f5b0002003d00d4c2b30008003700ca
:10159000001290000418a30002003200b4c2b3008d
:1015a000030037000408a3004c00320004c2b3005b
:1015b00084f178004700370020629000c5c6b30070
:1015c000854f520006003a00910278006482520072
:1015d000840878001402be006033b80011003700a0
:1015e00015c7b300854f520003003200a5c6b300f3
:1015f000854f520006003a0091027800688252003e
:10160000840878005403be004402be000500370081
:101610001182e90084087800140278008002eb004f
:101620006033b8000498be000690be00a060900031
:1016300088c6b30088cf50000d00320028c6b30022
:1016400088cf500004003a000482fb008002eb00c7
:101650006033b8000800370048c7b30088cf500097
:10166000030032006644440088cf500004003a0072
:101670008002eb006033b8000498be000690be0004
:10168000801090000138a300140032003002be0028
:101690002003be00e00f5200e08f5a00e00f5b0015
:1016a000e08f5b000d00320081c7b300814f510015
:1016b0000300320081c5b300814f510007003a009a
:1016c000f000900004c3b30084f178008100e800ca
:1016d00082f178008100e80071009800f00090002d
:1016e0008181410063009800824078003e0037000d
:1016f000a0619000c4c6b3001181e90084cf5100fd
:10170000220032000a003c006442520084cf5100a3
:101710002500320004c2e80084cf510013003200db
:101720006842520084cf51001e003a000a00370080
:1017300044c7b30084cf51001b0032006642420010
:1017400084cf5100180032006942520084cf51000a
:1017500014003a00050037008208780092007800f3
:1017600040589000804878002c00370082087800ac
:1017700092007800600a9000cfa2de00612bb900d1
:101780008498be008690be0024003700820878004e
:101790009200780060099000cf91de008288be0040
:1017a0001e0037001181e90082087800920078005d
:1017b0006008900080087800180037001181e90067
:1017c0008208780012027800cfa2de00612bb900f7
:1017d0000498be000690be00f00090008181410098
:1017e0006300980081c7b300220007000b00370098
:1017f000f000900082f1780006003700f0009000c1
:10180000818141000204e00001003a0052c2b300ad
:10181000824978008100e800710098000000eb0028
:101820004f047800000006008001780002003700b5
:10183000b15978000201e9000200e000fcff3a0023
:1018400000000600020037000304e000060032003a
:101850000001780002007800b041780081cf51008b
:10186000f9ff3a00010037000001eb0002007800a8
:1018700000000600fc874700889fbe008a9fbe00cc
:101880008c9fbe008e1f78000006780080c5b300d4
:1018900080cf50000a0032007740400080cf5000d7
:1018a0000a0032006940400080cf50000b00320037
:1018b000b082200080bf9f00ae0020000a003700e9
:1018c000a281200082bf9f0006003700b382200063
:1018d00083bf9f008e00200003003700b4822000e9
:1018e00084bf9f000e0120003c02be002c03be00fe
:1018f0000605be000404be0040c6b30080cf500001
:10190000030032006540400080cf50000b003a00d9
:10191000e00f5200e08f5a00e00f5b00e08f5b00a9
:1019200006003d006000b8006011b80004045000db
:10193000858458000605590087855900e80f57002f
:101940000400320040002000f00f570038003a0039
:101950000100370030002000e00f5400e08f5c00f1
:10196000e00f5d00e08f5d0004003a00dc089000ad
:101970008d0120000100e000060032008e00e90029
:10198000888060008fba9700e5c07800f1ef9f0073
:101990007d012000800078008100e900050033000f
:1019a0008b05d1000a85d3008984d3000884d30035
:1019b000f9ff3700089ebe000a96be0012003700ed
:1019c0008d06e9008e00e900848060000fb9970061
:1019d000e2c1780082fd2f000f01410003f17e007b
:1019e000800078008100e900050033008783d10082
:1019f0000683d3008582d3000482d300f9ff370029
:101a0000049ebe000696be003c02be002c03be0033
:101a1000e00f5200e08f5a00e00f5b00e08f5b00a8
:101a20008b0034000d00e000e5ff3c00880037002b
:101a30002c60900081c6b300814f50000b00320033
:101a400006003c000004e00008003200e6c0500040
:101a5000814f50004e003a0004003700c1c6b30069
:101a6000814f50004a003a00210037000800e00092
:101a700004003a005c0890008d0120000000e000a6
:101a800006003200110009000e84d8000fb997003b
:101a9000e2c07800f1ef9f007d01200011000900f5
:101aa0000e84d8000a003700110009000e04d80087
:101ab0008d06e9000e81b900020454008fb897002a
:101ac00061417c0081fd2f008f80400082f07e000c
:101ad000000478000800e000020032000d00e00081
:101ae000f1ff3c00cfc4de00614db9002500370096
:101af000e00f5400e08f5c0004003a005c089000a6
:101b00008d0120000000e000070032006171b90083
:101b10000800be00630107008fb99700e341780019
:101b2000f3ef9f007d0120006171b9000800be0045
:101b30004c0107000b0037006171b9000800be00be
:101b4000390107008d06e90000f1b90002045400d4
:101b50000fba9700e4427c0084fd2f000f02420080
:101b600005f27e000004be00e00f5000e08f580038
:101b7000020032000d00e000efff3c004fcdde0020
:101b80008a057800089ebe000a96be003000370025
:101b9000e00f5400e08f5c00e00f5d00e08f5d001f
:101ba00004003a005c0890008d0120000000e00075
:101bb000090032006172b900612bb9000800be0053
:101bc0000a01be00da0107000fba970064427800ec
:101bd000f4ef9f007d0120006172b900612bb90014
:101be0000800be000a01be00ca0107000d00370050
:101bf0006172b900612bb9000800be000a01be0085
:101c0000cf0107008d06e90000f2b900040454007a
:101c10008fba970065427c0085fd2f008f824200bd
:101c200084f27e00009ebe000296be003c04be0010
:101c30002c05be00e00f5400e08f5c00e00f5d005b
:101c4000e08f5d00020034000d00e000e8ff3c0082
:101c5000e80f570010003a000c1090000038a30065
:101c60000d003200f78f560006003e0085fd2f0064
:101c70008f824200e5c07e0000c3b30080cf5000d9
:101c8000050032008d06e90002c3b30081fd2f007c
:101c90008f80400082f07e0078811600120e98003e
:101ca0006c00900083fd2f008f8141008d804100ea
:101cb000ddfe07001c089000dc089000810f50003a
:101cc00006003d0000805000000e98000c109000af
:101cd0000040a100001698000f0037000100e0004e
:101ce0000d003d008c109000f4806000f08f5000db
:101cf00009003a007c099000fc009000810051002e
:101d00000c09900082805000008050004240a900e1
:101d100001003400000e98004f0778004f06be0007
:101d20004f05be004f04be00cf01b1000000060009
:101d30000400fa00889fbe008a9fbe008c1f7800b6
:101d40000004780001067800f80d900078009000fb
:101d5000808555000808900080855500180890007f
:101d6000808555002808900080855500380890002f
:101d700080855500480890008085550000022200ab
:101d800090bf9f0000032300a0bf9f000810900099
:101d90000028a30015003a000b00e00013003400f7
:101da0000b0578008a047800e20f55000100360028
:101db00029002000c801900009017800ee8057003a
:101dc0005800900003000100500498000000e0005b
:101dd0008c0032006808900009004000600c9800f8
:101de000090555004240a900eeff3c007801900033
:101df0000200e0000c003400c80190008c00780064
:101e00005800900003000100500498008080eb000f
:101e10000000e0007c003200e808900078009000ac
:101e200000804000600c9800880c90000900e000e1
:101e30001100340009057800e28f540001003600db
:101e40002a002000c80190000a017800ec805700a9
:101e50005800900003000100500498000000e000ca
:101e600068003200680890000a004000600c98008a
:101e70008a845400edff3700180990000200e0004a
:101e80000c003400c8019000e80090005800900059
:101e900003000100500498008080eb000000e00087
:101ea00059003200e80890001808900000804000b7
:101eb000600c9800a80c90000900e00011003400ac
:101ec00009057800e28f5400010036002a00200046
:101ed000c80190000a017800ec805700580090007b
:101ee00003000100500498000000e00045003200ab
:101ef000680890000a004000600c98008a84540032
:101f0000edff3700380990000200e0000e003400b9
:101f1000e80090001808900080804000c801900000
:101f20005800900003000100500498008080eb00ee
:101f30000000e00034003200e8089000380890000b
:101f400000804000600c9800c80c90000900e00080
:101f50001100340009057800e28f540001003600ba
:101f60002a002000c80190000a017800ec80570088
:101f70005800900003000100500498000000e000a9
:101f800020003200680890000a004000600c9800b1
:101f90008a845400edff3700081090008000eb00a9
:101fa0000028a300180032000b00e00016003400e7
:101fb0008b04780009057800e28f54000100360098
:101fc0002a002000c80190000a017800ee80570026
:101fd0005800900003000100500498000000e00049
:101fe00008003200680890000a004000600c980069
:101ff0008a8454004240a900eeff3c008000eb00c0
:10200000010037008080eb00010078004f06780067
:102010004f05be004f04be000080fa00000006001d
:102020000108780000000600839f68000100e000be
:1020300002003d0060001000e08018000300e00096
:1020400002003d0060011100e08119000500070059
:102050004f00e00002003b0060001000e08018002c
:10206000000006006022b800060220000000d00038
:102070008180d2000482d2008582d2000000a000bc
:102080000202520083825a00030031000202420021
:1020900083824a000000a1000603e900f3ff3a0032
:1020a00000000600efff07000400be00000006006d
:1020b000889fbe008a9fbe0030044200b0844a0060
:1020c00030054b0090854b006000b1000898be00c1
:1020d0000a90be000440e10005c8e10006d0e1001e
:1020e00007d8e10002003100680040001008e80055
:1020f0004f05be004f04be0000000600889fbe00d2
:102100008a9fbe003004be002005be0004185400a3
:1021100005985c0006185d0007985d00110020001e
:102120000440e10005c8e10006d0e10007d8e10065
:10213000010039008000eb00108810004f05be0040
:102140004f04be00000006001200fa00889fbe0087
:102150008a9fbe008c9fbe00e0b79f00f1b79f0032
:1021600082bf9f0093bf9f000605be000404be000f
:102170000000eb00d0b79f00c0b79f00b0b79f0032
:10218000a0b79f0090b79f000006eb005fb19700db
:10219000cfb09700820141003fb097000200e000fd
:1021a00004003d00370007007e805700c0ff070095
:1021b00003003700330007007e805700cfff070081
:1021c000dfb697000d00e0000c0035006fb29700fd
:1021d000ffb297000fbb97009fbb97001000200035
:1021e000010020006011b8000002720081827200bc
:1021f00002037300838373001b0007000c06e800d2
:1022000001042000810f5600e0ff3a000d00e000bd
:1022100004003d000802be000a03be007e80570095
:10222000a3ff07005fa897000000e00005003a0048
:102230001fb29700afb297003fb39700cfb397009c
:10224000090007006fb09700ffb097000fb9970023
:102250009fb997004f06be004f05be004f04be0059
:102260000080fa00000006000100070000000600e0
:10227000a4b79f00b5b79f00c6b79f00d7b79f0010
:10228000000006004f09de0082817100b3b79f0095
:102290004f01de008180400082807000a1b79f0066
:1022a0008fb097004f09de00000040000200700070
:1022b00090b79f007fa897004f01de00818040000b
:1022c0008280700081b79f000d0007004f3ade004a
:1022d0000000400004007000f0af9f0008000700fd
:1022e0000402420085824a0006034b0087834b00ac
:1022f000dfff07000802be000a03be000000060060
:102300002fb29700bfb297004fb39700dfb397008b
:1023100000000600881f780018002000881f780041
:1023200089ff07008f87e9004f047800000006004e
:10233000801feb0084ff07008f87e9000000060084
:10234000889fbe008a9fbe00e00f5000e08f5800bb
:10235000e00f5900e08f59000c003d006044b800c8
:102360006055b8000000540081805c0002015d00ef
:1023700083815d00180020001500070008003d0063
:10238000180007000004eb00050037000004eb0014
:102390000f00070002003d00120007001800200097
:1023a000dcff07000800e000060032006022b800f1
:1023b0006033b8000000520081805a0002015b00c7
:1023c00083815b004f05be004f04be000000060085
:1023d000e00f5200e08f5a00e00f5b00e08f5b00df
:1023e000000006006044b8006055b80004025400c4
:1023f00085825c0006035d0087835d0000000600a7
:10240000889fbe008a9fbe008c1f7800e00f50009e
:10241000e08f5800e00f5900e08f59000d003d009b
:102420006044b8006055b8000000540081805c0032
:1024300002015d0083815d001c0020000820e10096
:1024400009a8e1000ab0e1000bb8e1000d003d0071
:10245000080037000006eb00e00f5200e08f5a0042
:10246000e00f5b00e08f5b0006003d006044b800b9
:102470006055b8000402540085825c0006035d00cc
:1024800087835d00aaff07000c00e0000600320011
:102490006022b8006033b8000000520081805a000a
:1024a00002015b0083815b004f0678004f05be0090
:0824b0004f04be00000006000d
:020000040000fa
:1024b8002020000020200000202000002020000014
:1024c8002020000020200000202000002020000004
:1024d8002020000020200000002000002020000014
:1024e8003d2000004d43000055200000436f0000d0
:1024f8007572000073650000203d00002020000078
:1025080020000000202000002020000020200000e3
:1025180020540000454100004d20000031320000e9
:1025280020200000202000002020000000200000c3
:10253800202000002020000032300000313600004a
:102548002f300000312f000030370000202000001d
:102558002020000020000000466900006e61000095
:102568006c200000507200006a2e00002054000009
:10257800454100004d2000003132000020200000bd
:1025880000410000443100003a20000025350000d9
:102598006420000041440000323a00002535000064
:1025a8006400000041440000333a00002025000088
:1025b8003564000020410000443400003a25000042
:1025c8003564000000410000443500003a20000056
:1025d800253500006420000041440000363a000020
:1025e80025350000640000002558000000000000a8
:020000040000fa
:1025f8000200fa000000eb00000f7800010037002d
:102608001e0fe8001e007800fd0f5000fcff34008c
:10261800e10007000ee8b7000000eb00000f7800ab
:10262800010037001e0fe8001e007800fd0f500063
:10263800fcff34000ec8bf000080fb004700de002e
:10264800004078000080fb00610060000080fa0014
:10265800000006000000fa00c012200092000700e7
:10266800d742a9001602070000c2b30060010700a4
:10267800a00020008c00070080c2b3009a01070068
:10268800100020008800070080c0b30096010700f2
:10269800a00020008400070010c0b30092010700ca
:1026a800c003200080000700c0c0b3008e010700ef
:1026b800a00020007c00070060c0b3008a0107006a
:1026c800a00020007800070000c8b30086010700ba
:1026d800a000200074000700a00f2000720007006f
:1026e8000080fa00000006000400fa002047980065
:1026f800314798002e4090000000fb00e10f500089
:102708000d003200e10f500003003c000000e00023
:102718000600320011003700e20f500009003200b5
:10272800e30f50000a0032000c00370000c8b30065
:10273800004f78000c00370000ccb300004f780041
:102748000900370040c9b300004f78000600370081
:1027580040cdb300004f78000300370000c8b30035
:10276800004f7800000000003e4090001e4f4000df
:102778001e4078005c0107000080fa000000060097
:102788000400fa0020479800314798002e40900036
:102798000000fb00e10f50000d003200e10f500077
:1027a80003003c000000e000060032001100370082
:1027b800e20f500009003200e30f50000a00320017
:1027c8000c00370000ccb300004f78000c00370035
:1027d80000c8b300004f78000900370040c9b300b3
:1027e800004f78000600370040cdb300004f780056
:1027f800030037000040eb00004f780000000000a5
:102808003e4090001e4f40001e40780036010700f1
:102818000080fa00000006000200fa00004f78006d
:102828001e4078007c0007000080fa0000000600c7
:102838000200fa00000f7800040037001e0078003c
:10284800104078001e0fe800730007001e00780093
:10285800104078000004e000f8ff3a000080fa0019
:10286800000006000200fa00000f78000800370098
:10287800000000005eff07000000e000fdff3a00d6
:102888001e007800104078001e0fe800e2ff0700e5
:102898001e007800104078000004e000f4ff3a00c1
:1028a8000080fa00000006000400fa0010079800f3
:1028b8000000eb00000f7800020037000700070057
:1028c8001e0fe8001e0090009e007800808f5000c8
:1028d800faff35000080fa00000006000200fa0046
:1028e8000000eb00000f7800010037001e0fe80021
:1028f800f06320009e007800808f5000fbff3400ba
:102908000080fa00000006000200fa00911680001c
:10291800f08720000100700090168800e822a800c7
:10292800e802a80066010700d742a8006401070072
:10293800a0168000000f7800d742a90091168000e9
:1029480000782f0000806000901688009e007800b4
:1029580081408800008020001e0060000000e00028
:10296800050032008140800000082000010070004e
:10297800804088000400370081408000f007200074
:10298800008060008040880080408000004078001f
:102998000080fa00000006000400fa00911680008a
:1029a80000002f000100700090168800e822a9009e
:1029b800e802a80042010700d742a800400107002a
:1029c800a1168000010f7800d742a900e822a900cb
:1029d800e802a8003a010700d742a800380107001a
:1029e800d742a90091168000f0ff20000080600007
:1029f800901688001e0078004800de0080407800ad
:102a080000c8b30000c06000204798002e40900026
:102a18000080fa00000006000400fa002047980031
:102a2800ae409000014f780000cfb3001e40600018
:102a3800104798009e409000c2802000014978000d
:102a4800604080004400de00614060000080fb00c0
:102a5800610060004c00dd00b2168000f1ff2e001e
:102a68008100610001007000b0168800604080009d
:102a78004500de00614060000080fb0061006000ee
:102a88004d00dd00b2168000f1ff2d0081006100cd
:102a980001007000b0168800604080004600de002b
:102aa800614060000080fb00610060004e00dd00b6
:102ab800b2168000f1ff2b00810061000100700058
:102ac800b0168800604080004700de00614060006a
:102ad8000080fb004f00dd00b2168000f1ff2700e8
:102ae8008100610001007000b0168800e822a8008b
:102af800e802a900f2000700d742a800f00007008a
:102b0800d742a900ee0007001e80fb004400dd004c
:102b1800104798009e409000c2802000014978002c
:102b2800604080004400de00614060000080fb00df
:102b3800610060004c00dd00b2168000f1ff2e003d
:102b48008100610001007000b016880060408000bc
:102b58004500de00614060000080fb00610060000d
:102b68004d00dd00b2168000f1ff2d0081006100ec
:102b780001007000b0168800604080004600de004a
:102b8800614060000080fb00610060004e00dd00d5
:102b9800b2168000f1ff2b00810061000100700077
:102ba800b0168800604080004700de006140600089
:102bb8000080fb004f00dd00b2168000f1ff270007
:102bc8008100610001007000b0168800e822a800aa
:102bd800e802a900ba000700d742a800b800070019
:102be800d742a900b60007000080fa0000000600de
:102bf8000400fa0020479800ae409000014f78008a
:102c080000cfb3001e406000104798009e4090001f
:102c1800c280200001497800604080004400de0046
:102c2800614060000080fb00610060004c00dd0036
:102c3800b2168000f1ff2e008100610001007000d3
:102c4800b0168800604080004500de0061406000ea
:102c58000080fb00610060004d00dd00b2168000be
:102c6800f1ff2d008100610001007000b01688009e
:102c7800604080004600de00614060000080fb008c
:102c8800610060004e00dd00b2168000f1ff2b00ed
:102c98008100610001007000b0168800604080006b
:102ca8004700de00614060000080fb004f00dd004f
:102cb800b2168000f1ff270081006100010070005a
:102cc800b0168800e822a900e802a9007c000700e5
:102cd800d742a8007a000700d742a9007800070069
:102ce8000080fa00000006000400fa00204798005f
:102cf800ae409000014f780000cfb3001e40600046
:102d0800104798009e409000c2802000014978003a
:102d1800604080004400de00614060000080fb00ed
:102d2800610060004c00dd00b2168000f1ff2e004b
:102d38008100610001007000b016880060408000ca
:102d48004500de00614060000080fb00610060001b
:102d58004d00dd00b2168000f1ff2d0081006100fa
:102d680001007000b0168800604080004600de0058
:102d7800614060000080fb00610060004e00dd00e3
:102d8800b2168000f1ff2b00810061000100700085
:102d9800b0168800604080004700de006140600097
:102da8000080fb004f00dd00b2168000f1ff270015
:102db8008100610001007000b0168800e822a900b7
:102dc800e802a9003e000700d742a8003c0007001f
:102dd800d742a9003a0007001e80fb004400dd002e
:102de800104798009e409000c2802000014978005a
:102df800604080004400de00614060000080fb000d
:102e0800610060004c00dd00b2168000f1ff2e006a
:102e18008100610001007000b016880060408000e9
:102e28004500de00614060000080fb00610060003a
:102e38004d00dd00b2168000f1ff2d008100610019
:102e480001007000b0168800604080004600de0077
:102e5800614060000080fb00610060004e00dd0002
:102e6800b2168000f1ff2b008100610001007000a4
:102e7800b0168800604080004700de0061406000b6
:102e88000080fb004f00dd00b2168000f1ff270034
:102e98008100610001007000b0168800e822a900d6
:102ea800e802a90006000700d742a80004000700ae
:102eb800d742a900020007000080fa0000000600bf
:102ec8000200fa000000eb00000f78000100370054
:102ed8001e0fe800700c20009e007800808f5000c4
:102ee800fbff34000080fa00000006004000fa00f2
:102ef8001027290014000900305f78005e01b10036
:102f08005001b10060282900f500470014000900ad
:102f1800b05878005001b100b0292900a102200062
:102f28008100470014000900b05878005001b10032
:102f38008040eb000040eb0011fe07000e00780017
:102f48003bfe07008040eb0010c0b3000cfe0700fa
:102f58007500470036fe07008040eb0020c0b30034
:102f680007fe0700c025290031fe07008040eb005e
:102f780030c0b30002fe0700a00220000e0040008f
:102f88002bfe07000080fa00000006000000fa008f
:102f98008040eb000040eb00f9fd0700c025290048
:102fa80023fe07008040eb0010c0b300f4fd0700cb
:102fb800c02529001efe07008040eb0020c0b3009a
:102fc800effd0700c025290019fe07008040eb002f
:102fd80030c0b300eafd0700c025290014fe070031
:102fe8000080fa00000006000200fa00000f7800d6
:102ff8001e007800e40f50000500360010c0b30032
:1030080039ff0700c003200027fe0700060037002d
:103018001e007800004078008040eb00d8fd0700d3
:10302800c025290002fe07000080fa000000060003
:103038000000fa000080eb00101688000080eb000a
:10304800001688000080eb0020168800e622ef00ba
:10305800e422ef000080eb00401788000000eb003e
:103068000080fa00000006000200fa000000eb00f1
:10307800000f7800e982a900100020000afe07006e
:1030880010168000610060000000e00001003a00b6
:103098001e00a00010168000620060000000e00022
:1030a80001003a001e10a0001016800064006000a5
:1030b8000000e00001003a001e20a0001016800069
:1030c800680060000000e00001003a001e30a00027
:1030d800e982a800e9a2a90010002000f2fd07007b
:1030e80010168000610060000000e00001003a0056
:1030f8001e40a00010168000620060000000e00082
:1031080002003a00000220001e0f70001016800016
:10311800640060000000e00002003a0000042000a3
:103128001e0f700010168000680060000000e000ac
:1031380002003a00000820001e0f7000e9a2a80053
:103148001e0078000080fa00000006000400fa0063
:1031580020479800c4ff0700000f78002e40900019
:103168000000fb00110020000008dd001e006000c8
:103178000000e0000d003200a00f2000cafd07008b
:10318800b9ff0700000f78002e4090000000fb00f8
:10319800110020000008dd001e0060000000e000b3
:1031a8000200320010002000010037000000eb0090
:1031b8000080fa00000006000c00fa000000eb0096
:1031c800000f7800180037001e00780000407800d3
:1031d800deff07000000e000120032008040eb0034
:1031e80020c0b30066fd07000e80e8009e1f78002f
:1031f800812f2900811f7800c0f70700e487570056
:103208000e80e8008afd0700c04080000000e8004a
:10321800c0408800c0408000f30f50000100340017
:103228001828ef001e0fe8001e007800ef0f50006e
:10323800e5ff34000000eb000080fa000000060003
:103248000000fa0010f82f00601988000080eb00d9
:10325800501988002e23ef002023ef002023a90017
:103268002043a8002143a800001980000080a10085
:103278000090a100001988002063a90000198000af
:103288000050a1000060a1000070a1000019880092
:103298002223ef001019800000d0a10000e0a10057
:1032a80000f0a100101988002203a9002423ef00d0
:1032b800f0c0b30024e3b70025e3a900211980007a
:1032c800f00f2e00808060000030200001007000a8
:1032d800201988003223ef00901980000000a10017
:1032e8000010a1000020a100901988002623ef00fb
:1032f8002823ef0028e3a90021e3a8000080fa00b2
:0433080000000600bb
:020000040000fa
:10330c000c08000006000000000000001808000077
:10331c000200000000000000000800000c0000008b
:10332c000000000012080000060000000000000071
:10333c003c0800001a00000002000000686a6c00e3
:10334c00747a4c0000000100000200000400080028
:10335c0000100000000020002b2d23003000000086
:10336c001a08000022000000020000003031320078
:10337c003334350036373800394142004344450078
:10338c0046003000313233003435360037383900de
:10339c0061626300646566000000000000000000cc
:020000040000fa
:1033ac000000fa0040062000100888000421ef00fd
:1033bc00200880000040a1000050a10020088800d7
:1033cc0005e1a8009460a8000080fa000000060047
:020000040000fa
:0200000401f009
:0400080007000000ed
:020000040000fa
:0200000401f009
:04000c00a30000004d
:020000040000fa
:0200000401f009
:04001000e600000006
:020000040000fa
:0200000401f009
:040014007700000071
:020000040000fa
:0200000401f009
:04001800e7000000fd
:020000040000fa
:0200000401f009
:04001c00c20000001e
:00000001FF
